:020000040800F2
:10000000C8060020450100086D18000823110008EB
:1000100099140008DD0B00083B2E000800000000CA
:100020000000000000000000000000002B1E00087F
:10003000350C000800000000251B000829210008DD
:100040005F0100085F0100085F0100085F01000810
:100050005F0100085F0100085F0100085F01000800
:100060005F0100085F010008B10D00085F01000892
:100070005F0100085F0100085F0100085F010008E0
:100080005F0100085F0100085F0100085F010008D0
:100090005F0100085F0100085F0100085F010008C0
:1000A0005F0100085F0100085F0100088D21000862
:1000B0005F0100085F0100085F0100085F010008A0
:1000C0005F0100085F0100085F0100085F01000890
:1000D0005F010008292C00085F0100085F0100088B
:1000E0005F0100085F0100085F0100085F01000870
:1000F000B52700085F0100085F0100085F010008E4
:100100005F0100085F0100085F0100085F0100084F
:100110005F0100085F0100085F0100085F0100083F
:100120005F0100085F0100085F0100085F0100082F
:10013000DFF80CD000F0ACFB00480047E52F0008CA
:10014000C80600200648804706480047FEE7FEE74D
:10015000FEE7FEE7FEE7FEE7FEE7FEE7FEE7FEE777
:100160002D2100083101000810B5002200E0521CCA
:10017000835C8C5CA34201D1002BF8D1D8B2E1B2F0
:10018000401A10BD80EA010210B502F000434000A1
:1001900022D04A001FD0010E01EB1261C0F35600BD
:1001A000C2F3560240F4000042F40002A0FB022019
:1001B00000047F39140400D0401C50EA124001D4DE
:1001C0004000491EC2B20C0604EBD010401C40088F
:1001D000802A02D003E0002010BD20F00100002999
:1001E00000DA0020184310BD30B480EA010202F0AA
:1001F000004530F0004221F0004013D090B1C30D13
:10020000D40DC2F31601C0F31600E41A41F4000144
:1002100040F400027D34914201D3641C00E04900A7
:10022000002C02DA30BC002070474FF4000000239D
:10023000914201D3891A034340084FEA4101F7D1A3
:1002400051B1914202D14FF0004105E002D24FF08E
:10025000010101E06FF0010103EBC450284430BC00
:1002600000F031BA2DE9FE4F804681EA0300C00F4D
:100270000C46009021F0004123F00045B8EB02004D
:10028000A94105D24046214690461C460B460246EF
:1002900023F00040104347D0270DC7F30A00C3F3F3
:1002A0000A510290401A019040286BDAC3F3130000
:1002B00040F4801B0098924620B10023D2EB030A41
:1002C00063EB0B0B01985946C0F14002504600F019
:1002D000C9F906460D4650465946019A00F0E1F923
:1002E00010EB08006141002487EA115284EAE773A9
:1002F0001A4340D0009A62B3019A012A4FEA07528A
:1003000015DC001B61EB02014FF0004202EA0752CC
:10031000CDE90042001C41F5801132462B4600F029
:1003200018FA03B0BDE8F08F40462146F9E7001BFC
:1003300061EB0201001C41F5801300185B4120189D
:10034000A2F5001747EB030140EAD570B6196D41DD
:1003500011E06D084FEA360645EAC0754FEA0752CC
:10036000001B61EB0201001C41F5801149084FEAB6
:1003700030000019514132462B4603B0BDE8F04F22
:1003800000F0D8B90098012240000023D0EB02020F
:1003900063EBE073009821464FEAE074B8EB00008D
:1003A00061EB0401E9E783F000435BE781F0004182
:1003B00058E72DE9FE4F81EA030404F0004421F0E0
:1003C000004100944FF0000B23F0004350EA010479
:1003D0005ED052EA03045BD0C3F30A54C1F30A555A
:1003E0002C44A4F2F3340194A0FB0254C1F3130192
:1003F00041F48011C3F3130343F4801301FB02445F
:1004000000FB034E840A970A44EA815447EA835763
:10041000A4FB076802958D0A05FB07854FEA932C1C
:1004200004FB0C542705029D4FEA065847EA16378D
:10043000B5EB08056EEB070C870E920E47EA8117A5
:1004400042EA8312A7FB0201B6EB0B0164EB000446
:100450002B0D43EA0C335E1844EB1C50DA46514630
:10046000E7FB0201C5F313044FEA0B3343EA1453CD
:100470004FEA0432019C43EA0603A4F10C040294FF
:10048000009CCDE900B400F064F903B0BDE8F08F42
:1004900000200146F9E72DE9F04D81EA030404F05C
:1004A000004B21F0004514464FF0000A23F00041B4
:1004B00050EA050220D054EA01021DD0C5F30A57C4
:1004C0000246C5F31303C1F31300C1F30A5640F407
:1004D000801543F48013A7EB0608101BD64608F2DC
:1004E000FD3873EB050002D308F1010801E0921812
:1004F0005B41B8F1000F03DA00200146BDE8F08D42
:1005000000204FF48011064684460EE0171B73EB63
:10051000050705D3121B63EB050306434CEA010CE8
:1005200049084FEA300092185B4150EA0107EDD1CB
:1005300052EA030012D082EA040083EA050108436C
:1005400005D0101BAB4106D20122002306E0002299
:100550004FF0004302E06FF0010253101AEB060067
:100560004CEB085110EB0A0041EB0B01BDE8F04DDC
:1005700000F0E0B8C10F80EAE0700844CA07962393
:10058000002100F0A9B896230022114600F0A4B87B
:100590000EB5C10F80EAE0700844CA07002140F29E
:1005A00033438DE80E000A460B4600F0D2F803B044
:1005B00000BD0EB540F2334102910021CDE900119A
:1005C0000A460B4600F0C5F803B000BD20F000401D
:1005D000C10DC0F3160040F400007F2901DA0020AD
:1005E0007047962903DCC1F19601C84070479639DF
:1005F0008840704770B5C1F30A5201F000450024ED
:10060000C1F3130140F2FF3341F480119A4201DA41
:10061000002070BD40F233439A42A2F2334203DC21
:10062000524200F02EF800E090402C43F1D04042BE
:1006300070BD000030B5041E71F1000404DB4FF002
:100640000044404264EB0101141E73F1000405DB19
:100650001C464FF00043524263EB0403994208BF2B
:10066000904230BD202A04DB203A00FA02F100203B
:1006700070479140C2F1200320FA03F319439040E0
:100680007047202A04DB203A21FA02F0002170474B
:1006900021FA02F3D040C2F12002914008431946EA
:1006A0007047202A06DBCB17203A41FA02F043EAD2
:1006B000E07306E041FA02F3D040C2F1200291401B
:1006C0000843194670470029A8BF7047401C4900DD
:1006D00008BF20F00100704710B4B0FA80FC00FAA7
:1006E0000CF050EA010404BF10BC704749B1CCF1D2
:1006F000200421FA04F411FA0CF118BF012121435E
:100700000843A3EB0C01CB1D4FEA00614FEA102018
:1007100042BF002010BC704700EBC35010440029BA
:10072000A4BF10BC7047401C490008BF20F0010066
:1007300010BC704710B5141E73F1000408DA401C99
:1007400041F1000192185B411A4301D120F00100F0
:1007500010BD2DE9F04D92469B4611B1B1FA81F2E0
:1007600002E0B0FA80F220329046FFF77BFF0446A9
:100770000F4640EA0A0041EA0B0153465A46084335
:1007800013D0114653EA010019D0C8F14002504677
:10079000FFF777FF05460E46504659464246FFF79B
:1007A00061FF084305D0012004E020463946BDE83A
:1007B000F08D0020054346EAE0762C4337430A9843
:1007C0006305E40AA0EB08000022FD0A44EA47544E
:1007D0000A3002D500200146E9E7010510196941F8
:1007E000DDE9084500196941BDE8F04DA2E72DE9B2
:1007F000F04D00231A461B1A8A4103DB00200146F4
:10080000BDE8F08DC1F30A52C1F3130141F4801524
:100810004FF0000BD10702D100186D41521E002786
:10082000044640F2FF11384601EB620A3E4680461C
:10083000024600204FF48011FFF723FFC2197141D7
:10084000BB1846EB0100B4EB030C75EB000C04D3B2
:10085000E41A65EB000517460E46241908F101005D
:100860006D4180463428E3DDF91946EB0600091B8B
:10087000A84103D24FF0FF32134601E00022134695
:100880001BEB070046EB0A51BDE8F04DFFF752BFE6
:10089000064C074D06E0E06840F0010394E80700CD
:1008A00098471034AC42F6D3FFF746FC34370008C3
:1008B0005437000870B58C1810F8015B15F0070369
:1008C00001D110F8013B2A1106D110F8012B03E0E9
:1008D00010F8016B01F8016B5B1EF9D12B0705D4F1
:1008E0000023521E0DD401F8013BFAE710F8013B3A
:1008F000CB1A921C03E013F8015B01F8015B521E56
:10090000F9D5A142D8D3002070BD00002DE9F04FE9
:100910008BB004460D4616461F46DDF850A04FF03A
:100920000008C14600200A9060B202F08BFE15B9A3
:100930000BB0BDE8F08F002D1DDA012004EB44015F
:10094000994A02EBC1014870104640789749086007
:100950001046407E9649C1F88C01104690F831004F
:10096000924928310860104690F849009049C1F832
:10097000B4016D421BE0002004EB44018A4A02EB03
:10098000C101487010464078884908601046407E92
:100990008749C1F88C01104690F83100834928310D
:1009A0000860104690F849008149C1F8B401012D52
:1009B00012D1A81E04EB44017B4A02EBC10148613D
:1009C000022004EB440102F831004FF47A7004EB8A
:1009D000440102EBC1014860002D7DD0754991FBB7
:1009E000FAF000EBD071491004EB44026E4B03EBBC
:1009F000C20211616F48B0FBF6FB5846FFF7D9FD04
:100A0000CDE9000102F0A0FD00226B4BCDE902010F
:100A1000FFF7CFFC0022694BCDE90401FFF73BFD56
:100A200000224FF08043CDE90601FFF734FDCDE908
:100A30000801FFF7DFFD04EB44015B4A02EBC10153
:100A400048600AFB0AF07100B0FBF1F8B8F1000F42
:100A500001D14FF00108F019A84217D9F019FFF79A
:100A600092FD83463846FFF78EFD59460990FFF701
:100A7000BBFB0A902846FFF77DFD09900A99FFF716
:100A800081FB8346FFF7A2FD814604E0F019B5FB28
:100A9000F0F000FB07F9B9F1000F01D14FF00109A7
:100AA000C14508D8A9EB050004EB44013E4A02EB1E
:100AB000C101C8600AE008FB06F0B0FBF7F0404255
:100AC00004EB4401384A02EBC101C86004EB440066
:100AD000354901EBC00000E041E0C06838B94FF093
:100AE000FF3004EB4401304A02EBC101C86004EB63
:100AF00044002D4901EBC000C068284404EB4401C8
:100B0000294A02EBC101886004EB4400114601EB65
:100B1000C000406804EB440102EBC101096988424E
:100B200010DC04EB4400114601EBC000006904EB4B
:100B3000440102EBC1014860032004EB440102F8C8
:100B4000310005E0012004EB4401174A02F83100AE
:100B5000002004EB4401144A02EBC101486124B9AE
:100B60006421174802F005F813E0012C04D1642138
:100B7000134802F000F80CE0022C04D16421104864
:100B800001F0FBFF05E0032C03D164210C4801F0C8
:100B9000F6FF64210A4801F0EAFF0121084801F04C
:100BA0004CFE00BFC4E60000E401002084012242A4
:100BB0000000224280841E0040A1344100408F404A
:100BC000002C014070B505460C46A1B2284600F045
:100BD0008DFA012800D170BD0020FCE700BFFEE7C0
:100BE00008B50121202000F0AFFF10208DF8030090
:100BF0004020ADF8000003208DF80200694604484B
:100C000000F0A0F94021024800F084FA08BD00007D
:100C10000014014010B54021014800F07BFA10BDDE
:100C20000014014010B54021014800F071FA10BDD8
:100C3000001401407047000030B589B005460C46ED
:100C40000121102000F080FF10208DF82300ADF866
:100C5000200003208DF8220008A9394800F072F91D
:100C60001021374800F054FA10208DF8230020207E
:100C7000ADF8200003208DF8220008A9304800F0CC
:100C800061F920212E4800F043FA18208DF8230046
:100C90004FF48070ADF8200003208DF8220008A9E1
:100CA000274800F04FF90121480300F04DFF0020D4
:100CB000ADF81A00ADF81600681E80B2ADF8180045
:100CC000601E80B2ADF8140000208DF81C0005A94C
:100CD0001C4801F057FF01A801F03FFF6020ADF86C
:100CE00004000020ADF80C000120ADF80600002043
:100CF000ADF80A0001A9134801F08AFE012111484C
:100D000001F0A7FD4FF4A06000F0EAFD2C208DF863
:100D1000000001208DF8030000208DF801008DF8FF
:100D20000200684600F0A4FD01221146054801F0CA
:100D3000B0FD0121034801F080FD09B030BD000085
:100D400000100140003401401548007840B21549B8
:100D5000087013480078001F40B2487010480078AF
:100D6000401E40B2104908700D480078C01E40B2C5
:100D700048700B480078801F40B28870084800789F
:100D8000801E40B20949087005480078401F40B2F3
:100D9000487003480078C01F40B288707047000058
:100DA00014000020200000201D0000202200002050
:100DB00010B5102000F00EF8012804D1FFF72AFF2B
:100DC000102000F001F810BD0149086070470000D4
:100DD00014040140014600200022074B1B6803EA6F
:100DE0000102054B14331B680B4013B10AB10120FB
:100DF00000E0002070470000000401401FB5012101
:100E0000402000F0A1FE0121084600F09DFE482090
:100E10008DF80F001020ADF80C0003A9134800F066
:100E200091F80421084600F06DF81020019001208F
:100E30008DF80A0000208DF808000C208DF80900BC
:100E400001A800F015F84FF4A06000F049FD0A2059
:100E50008DF8000001208DF8030000208DF80100BE
:100E60008DF80200684600F003FD1FBD0018014028
:100E7000002123498279002A3AD00A461268036881
:100E80009A430B461A600A1D126803689A430B1DA9
:100E90001A60027911440A6803681A430A60184A02
:100EA0000832126803689A43154B08331A601A1DFA
:100EB000126803689A43124B0C331A604279102A65
:100EC0000ED11A1F126803681A430D4B08331A60BB
:100ED0001A1D126803681A43094B0C331A600DE09F
:100EE0000749427911440A6803681A430A6005E019
:100EF000027911440A6803689A430A607047000047
:100F00000004014030B500228B071C0F0F2303FAA9
:100F100004F20B4B8C1053F824309343084C8D1083
:100F200044F8253023468C1053F824308C07240FC6
:100F300000FA04F42343024C8D1044F8253030BDF0
:100F4000080001402DE9F04102460025002600205E
:100F500000230024002791F803C00CF00F0591F83E
:100F600003C00CF0100CBCF1000F03D091F802C0CC
:100F70004CEA050591F800C0BCF1000F31D01468AF
:100F800000202BE04FF0010C0CFA00F3B1F800C088
:100F90000CEA03069E4220D183004FF00F0C0CFA9E
:100FA00003F7BC4305FA03FC4CEA040491F803C0C0
:100FB000BCF1280F06D14FF0010C0CFA00FCC2F86E
:100FC00014C00AE091F803C0BCF1480F05D14FF0FE
:100FD000010C0CFA00FCC2F810C0401C0828D1D348
:100FE0001460B1F800C0BCF1FF0F34DD546800207C
:100FF0002EE000F1080C4FF0010808FA0CF3B1F8EC
:1010000000C00CEA03069E4221D183004FF00F0C72
:101010000CFA03F7BC4305FA03FC4CEA040491F80C
:1010200003C0BCF1280F05D100F1080C08FA0CF838
:10103000C2F8148091F803C0BCF1480F07D100F149
:10104000080C4FF0010808FA0CF8C2F81080401C98
:101050000828CED35460BDE8F0810000F0B50A4600
:10106000002300240021002500F00046B6F1004FC7
:1010700002D11D4EF16901E01B4E7168C0F30345BA
:1010800083B200F44016B6F5401F08D121F070611C
:10109000154E766826F07066134F7E6012E000F4FD
:1010A0008016B6F5801F06D1032606FA05F4A14383
:1010B00041F0706106E0460D360103FA06F6B143D1
:1010C00041F0706122B1460D360103FA06F6314354
:1010D00000F00046B6F1004F02D1034EF16101E08D
:1010E000014E7160F0BD000000000140024600208A
:1010F00093680B400BB1012000E0002070470246CE
:101100000020D3680B400BB1012000E000207047A5
:1011100041617047016170470AB1016100E04161BE
:10112000704700BFFEE7000030B589B005460C46A9
:101130000121082000F008FD0121042000F0F4FC4A
:1011400018208DF823004020ADF8200003208DF8F2
:10115000220008A91748FFF7F5FE0020ADF81A0095
:10116000ADF81600681E80B2ADF81800601E80B29F
:10117000ADF8140000208DF81C0005A90E4801F000
:1011800001FD01A801F0E9FC6020ADF80400002099
:10119000ADF80C000120ADF806000020ADF80A0003
:1011A00001A9054801F07EFB0121034801F045FB40
:1011B00009B030BD000C01400008004030B589B0D6
:1011C00005460C460121082000F0BEFC0121042048
:1011D00000F0AAFC18208DF823008020ADF8200034
:1011E00003208DF8220008A91748FFF7ABFE002066
:1011F000ADF81A00ADF81600681E80B2ADF8180000
:10120000601E80B2ADF8140000208DF81C0005A906
:101210000E4801F0B7FC01A801F09FFC6020ADF87A
:1012200004000020ADF80C000120ADF806000020FD
:10123000ADF80A0001A9054801F08AFB0121034825
:1012400001F0FBFA09B030BD000C0140000800407D
:1012500010B5264B264A2749274800F0DBFE02201E
:1012600000F002FE254B224A2249234800F0D2FE1C
:10127000234B1F4A1F49204800F0CCFE214B1C4A3B
:101280001C491D4800F0C6FE1F4B194A19491A484F
:1012900000F0C0FE1D4B164A1649174800F0BAFE72
:1012A000194B134A1349144800F0B4FE174B104A67
:1012B0001049114800F0AEFE002000F0D5FD144B9F
:1012C0000B4A0C490C4800F0A5FE124B084A09498C
:1012D000094800F09FFE104B054A0649064800F0F9
:1012E00099FE0EA000F0B2FD10BD0000B800002075
:1012F000480000205800002038000020D8000020BE
:10130000C8000020E800002018010020280100206B
:10131000F800002008010020380100204B5900008F
:1013200010B5334B334A3449344800F073FE344B24
:10133000304A3149314800F06DFE012000F094FD43
:10134000304B2C4A2C492D4800F064FE2E4B294A84
:1013500029492A4800F05EFE2C4B264A2649274898
:1013600000F058FE2A4B234A2349244800F052FE3D
:10137000284B204A2049214800F04CFE264B1D4AAC
:101380001D491E4800F046FE244B1A4A1A491B48C4
:1013900000F040FE224B174A1749184800F03AFE69
:1013A000204B144A1449154800F034FE1C4B114AD6
:1013B0001149124800F02EFE1A4B0E4A0E490F48F2
:1013C00000F028FE002000F04FFD174B094A0A49A3
:1013D0000A4800F01FFE154B064A0749074800F06F
:1013E00019FE134B034A0449044800F013FE10BDD4
:1013F000A8010020480000205800002038000020EC
:1014000048010020D8000020C8000020580100201A
:10141000680100208801002098010020E8000020D9
:101420002801002018010020F80000207801002089
:101430003801002010B500200E4908700E490870D0
:101440000E4908700E49087000F00EFD0D4B0E4A53
:101450000E490F4800F0DEFD0E4B0B4A0B490C48BD
:1014600000F010FE074B084A0849094800F0D2FD79
:1014700010BD0000340000203500002036000020A0
:1014800037000020A80000207800002088000020FD
:10149000680000209800002000BFFEE72DE9F0471B
:1014A00086B00746002604E0B85D04A98855701C84
:1014B000C6B2022EF8DB3B48007810B900208DF848
:1014C00010003848007910B900208DF8110001256E
:1014D0002BE0002423E004AA611C5056FFF758F8C3
:1014E00021F00041CDE9020104A90857FFF750F8A7
:1014F00021F00041CDE90001DDE90223FFF79AF870
:101500000BD204A810F8048004A9601C085C0855DC
:101510004FFA88F104AA601C1154601CC4B2C5F1D2
:101520000200A042D7DC681CC5B2022DD1DB9DF9B8
:101530001000FFF72DF821F00041CDE90201FFF77F
:1015400059F84FFA80F99DF91100FFF721F821F0C1
:1015500000410022144BCDE90001FEF727FFCDE941
:101560000201FFF747F84FFA80FA9DF8100080B9A2
:101570000C48007820B99DF9110006B0BDE8F0874D
:101580000848007910B99DF91100F6E79DF910009F
:10159000F3E7D14502DC9DF91000EEE79DF911005B
:1015A000EBE7000015000020000020402DE9F04787
:1015B00086B08146002605E019F8060004A9885582
:1015C000701CC6B2032EF7DB4E48807810B900209D
:1015D0008DF810004B48407910B900208DF81100AB
:1015E0004848C07910B900208DF8120001252BE081
:1015F000002423E004AA611C5056FEF7C9FF21F025
:101600000041CDE9020104A90857FEF7C1FF21F00E
:101610000041CDE90001DDE90223FFF70BF80BD211
:1016200004A810F804A004A9601C085C08554FFA2F
:101630008AF104AA601C1154601CC4B2C5F10300F5
:10164000A042D7DC681CC5B2032DD1DB9DF8100089
:1016500088BB9DF8110048B99DF8120018B9002008
:1016600006B0BDE8F0879DF91200F9E79DF9110079
:10167000FEF78EFF21F00041CDE90201FEF7BAFF2F
:1016800047B29DF91200FEF783FF21F000410022CE
:101690001D4BCDE90001FEF789FECDE90201FEF701
:1016A000A9FF4FFA80F8474502DC9DF91100D7E702
:1016B0009DF91200D4E7FFE79DF91000FEF768FFDF
:1016C00021F00041CDE90201FEF794FF47B29DF9F8
:1016D0001200FEF75DFF21F0004100220A4BCDE928
:1016E0000001FEF763FECDE90201FEF783FF4FFA2A
:1016F00080F8474502DC9DF91000B1E79DF9120022
:10170000AEE7000015000020000020402DE9F04762
:1017100086B08146002605E019F8060004A9885520
:10172000701CC6B2032EF7DB4E48407810B900207B
:101730008DF810004B48C07810B900208DF81100CA
:101740004848807910B900208DF8120001252BE05F
:10175000002423E004AA611C5056FEF719FF21F073
:101760000041CDE9020104A90857FEF711FF21F05D
:101770000041CDE90001DDE90223FEF75BFF0BD25A
:1017800004A810F804A004A9601C085C08554FFACE
:101790008AF104AA601C1154601CC4B2C5F1030094
:1017A000A042D7DC681CC5B2032DD1DB9DF8100028
:1017B00088BB9DF8110048B99DF8120018B90020A7
:1017C00006B0BDE8F0879DF91200F9E79DF9110018
:1017D000FEF7DEFE21F00041CDE90201FEF70AFF2F
:1017E00047B29DF91200FEF7D3FE21F0004100221E
:1017F0001D4BCDE90001FEF7D9FDCDE90201FEF751
:10180000F9FE4FFA80F8474502DC9DF91100D7E751
:101810009DF91200D4E7FFE79DF91000FEF7B8FE2E
:1018200021F00041CDE90201FEF7E4FE47B29DF947
:101830001200FEF7ADFE21F0004100220A4BCDE977
:101840000001FEF7B3FDCDE90201FEF7D3FE4FFA2A
:1018500080F8474502DC9DF91000B1E79DF91200C0
:10186000AEE7000015000020000020407047000097
:1018700070B5002100230F22C47804B3154C2468EE
:1018800004F4E064C4F5E064210AC1F10403CA4031
:10189000447804FA03F184781440214309010E4C82
:1018A0000678A155047804F01F050124AC400578A2
:1018B0006D11AD0005F1E025C5F8004109E004789F
:1018C00004F01F050124AC40044D0678761145F85C
:1018D000264070BD0CED00E000E400E080E100E097
:1018E00002490143024A1160704700000000FA05F6
:1018F0000CED00E070B500240EE00021204600F061
:10190000E0F8002504E0002000F0FCF8681CC5B2F7
:10191000802DF8DB601CC4B2082CEEDB70BD00002B
:1019200008B50121042000F00FF914208DF8030000
:1019300003208DF802002020ADF8000069460A4817
:10194000FFF700FB8020ADF8000069460648FFF76E
:10195000F9FA012220210448FFF7DEFB0122802151
:101960000148FFF7D9FB08BD0008014070B50546E6
:10197000002413E08020204100EA050280210E4867
:10198000FFF7CAFB012220210B48FFF7C5FB00220D
:1019900020210948FFF7C0FB601CC4B2082CE9DB1A
:1019A000012220210448FFF7B7FB00222021024832
:1019B000FFF7B2FB70BD00000008014010B5012226
:1019C00080210948FFF7A8FB012220210648FFF7E4
:1019D000A3FB002280210448FFF79EFB0022202168
:1019E0000148FFF799FB10BD0008014010B5002227
:1019F00080210748FFF790FB012220210448FFF7D0
:101A00008BFB012280210248FFF786FB10BD0000FE
:101A10000008014070B5002406E0002500E06D1CC0
:101A2000B5F57A7FFBD3641CB4F57A7FF5D3FFF765
:101A300077FFAE2000F056F8D52000F053F8802054
:101A400000F050F8A82000F04DF83F2000F04AF8D0
:101A5000D32000F047F8002000F044F8402000F0C8
:101A600041F8A12000F03EF8C82000F03BF8DA2051
:101A700000F038F8122000F035F8812000F032F83C
:101A8000CF2000F02FF8D92000F02CF8F12000F042
:101A900029F8DB2000F026F8302000F023F8A420FD
:101AA00000F020F8A62000F01DF88D2000F01AF8B4
:101AB000142000F017F8AF2000F014F8FFF71AFF19
:101AC00070BD70B505460C4645F0B00000F00AF850
:101AD000102141EA141000F005F804F00F0000F0A6
:101AE00001F870BD10B50446FFF768FF7820FFF7D6
:101AF0003DFF0020FFF73AFF2046FFF737FFFFF7D3
:101B000075FF10BD10B50446FFF758FF7820FFF7AA
:101B10002DFF4020FFF72AFF2046FFF727FFFFF7A2
:101B200065FF10BD7047000029B1064AD269024323
:101B3000044BDA6104E0034AD2698243014BDA6163
:101B4000704700000010024029B1064A9269024322
:101B5000044B9A6104E0034A92698243014B9A6103
:101B6000704700000010024030B500210022002420
:101B700000232D4D6D6805F00C0121B1042905D01D
:101B8000082923D105E0294D056022E0274D056095
:101B90001FE0254D6D6805F47012234D6D6805F446
:101BA0008034022505EB92421CB9214D5543056056
:101BB0000BE01D4D6D6805F400351DB11C4D5543FE
:101BC000056002E0194D5543056002E0174D0560C0
:101BD00000BF00BF144D6D6805F0F0010909154DF7
:101BE0006B5C0568DD4045600F4D6D6805F4E06194
:101BF000090A104D6B5C4568DD4085600A4D6D68D3
:101C000005F46051C90A0B4D6B5C4568DD40C56049
:101C1000054D6D6805F44041890B074D6B5CC56847
:101C2000B5FBF3F5056130BD0010024000127A00EB
:101C300000093D00000000201000002008B501212F
:101C40001020FFF781FF0320ADF8000010208DF871
:101C5000030003208DF8020069460D48FFF772F972
:101C600001210B48FFF754FA01214020FFF76CFFD8
:101C70004FF40070ADF8000010208DF80300032031
:101C80008DF8020069460348FFF75CF908BD0000C3
:101C9000001001400018014008B501214020FFF765
:101CA00053FF01211020FFF74FFF0820ADF800007F
:101CB00010208DF8030003208DF8020069461148BA
:101CC000FFF740F94FF40060ADF8000010208DF8E8
:101CD000030003208DF8020069460B48FFF732F934
:101CE0000420ADF8000010208DF8030003208DF8CB
:101CF000020069460348FFF725F904210148FFF770
:101D000007FA08BD001001400018014008B5012184
:101D10004020FFF719FF01211020FFF715FF4FF4B6
:101D20000060ADF8000010208DF8030003208DF84E
:101D3000020069461248FFF705F94FF40050ADF86C
:101D4000000010208DF8030003208DF80200694682
:101D50000C48FFF7F7F84FF48060ADF80000102052
:101D60008DF8030003208DF8020069460448FFF750
:101D7000E9F84FF480610248FFF7CAF908BD000096
:101D8000001001400018014008B501214020FFF774
:101D9000DBFE01211020FFF7D7FE4FF40050ADF815
:101DA000000010208DF8030003208DF80200694622
:101DB0001248FFF7C7F84FF48040ADF8000010203C
:101DC0008DF8030003208DF8020069460C48FFF7E8
:101DD000B9F84FF48050ADF8000010208DF80300E2
:101DE00003208DF8020069460448FFF7ABF84FF472
:101DF00080510248FFF78CF908BD00000010014037
:101E00000018014008B54FF4A060FFF769FD1B20E2
:101E10008DF8000001208DF801008DF802008DF88A
:101E200003006846FFF724FD08BD704710B504465F
:101E30002146054800F0FDFF00BF8021024800F068
:101E40002AFF0028F9D010BD0038014070B50446C3
:101E5000002504E0605DFFF7E9FF681CC5B2605D26
:101E60000028F7D170BD000010B5044634B1012C34
:101E70000DD0022C14D0032C24D11AE012490020DA
:101E800000F02CF81049012000F028F81AE00F4962
:101E9000002000F023F80C49012000F01FF811E0A9
:101EA0000949002000F01AF80949012000F016F84D
:101EB00008E00849002000F011F80749012000F06F
:101EC0000DF800BF00BF10BD0080BB440080684417
:101ED00000006144000096430000164370B50446BC
:101EE0000D4614B1012C12D108E02846FEF76EFB16
:101EF00086B23146074800F03CFE08E02846FEF76F
:101F000065FB86B23146034800F035FE00BF00BFD6
:101F100070BD00000008004010B500F001F810BDD1
:101F20000CB50020019000903348006840F48030E8
:101F30003149086000BF3048006800F4003000906C
:101F40000198401C0190009818B90198B0F5A06F55
:101F5000F1D12948006800F4003010B10120009050
:101F600001E0002000900098012843D12348006838
:101F700040F01000214908600846006820F0030086
:101F800008600846006840F0020008601A4840688F
:101F9000194948600846406848600846406840F46F
:101FA000806048600846406820F47C10486008461D
:101FB000406840F4E81048600846006840F08070CF
:101FC000086000BF0C48006800F000700028F9D0DD
:101FD0000948406820F00300074948600846406807
:101FE00040F00200486000BF0348406800F00C0069
:101FF0000828F9D10CBD000000100240002002406A
:1020000010B504462146024800F0B7FD10BD00009F
:1020100000340140F8B504460D4616461F463068A8
:1020200000902B68226800203968FEF76FFC70680A
:1020300000906B68626801207968FEF767FCB06801
:102040000090AB68A2680220B968FEF75FFCF068F8
:102050000090EB68E2680320F968FEF757FC0EE099
:102060000748007858B90648007E40B9044890F8FF
:10207000300020B9024890F8480000B9F8BDEFE7F9
:10208000E4010020F8B504460D4616461F463068A8
:1020900000902B68226800203968FEF737FC7068D2
:1020A00000906B68626801207968FEF72FFCB068C9
:1020B0000090AB68A2680220B968FEF727FCF068C0
:1020C0000090EB68E2680320F968FEF71FFC20E04F
:1020D00000F042FF0F48007801280BD10E4800782D
:1020E000012807D10D480078012803D10C48007859
:1020F00001280DD00B48007858B90A48007E40B935
:10210000084890F8300020B9064890F8480000B917
:10211000F8BDDDE734000020350000203600002047
:1021200037000020E40100207047000010B513487C
:10213000006840F0010011490860084640681049F5
:1021400008400E494860084600680E4908400B499F
:1021500008600846006820F480200860084640684F
:1021600020F4FE0048604FF41F008860FFF7D4FEA3
:102170004FF000600449086010BD000000100240EC
:102180000000FFF8FFFFF6FE08ED00E01CB500249C
:102190000020009001900221FB4800F069FB98B1FB
:1021A00000BF04EB4400F94A02EBC000808881B212
:1021B000F54800F0DEFC0221F34800F03BFB022171
:1021C000F14800F034FB49E00421EF4800F050FBF7
:1021D00098B1012404EB4400EC4A02EBC000808873
:1021E00081B2E94800F0C7FC0421E74800F022FB77
:1021F0000421E54800F01BFB30E00821E24800F034
:1022000037FB98B1022404EB4400E04A02EBC00023
:10221000808881B2DC4800F0B0FC0821DA4800F088
:1022200009FB0821D84800F002FB17E01021D6482E
:1022300000F01EFB90B1032404EB4400D34A02EBF0
:10224000C000808881B2D04800F099FC1021CE48AF
:1022500000F0F0FA1021CC4800F0E9FA04EB440059
:10226000CA4A02EBC000808881B2C74800F07FFCF8
:1022700004EB4400C54911F83000002851D034B1B6
:10228000012C16D0022C26D0032C48D135E04FF477
:102290000071BF48FEF733FF28B14FF40071BC480E
:1022A000FEF736FF04E04FF40071B948FEF732FF45
:1022B00036E04FF40061B648FEF721FF28B14FF435
:1022C0000061B348FEF724FF04E04FF40061B0481A
:1022D000FEF720FF24E04FF40051AD48FEF70FFF5A
:1022E00028B14FF40051AA48FEF712FF04E04FF462
:1022F0000051A748FEF70EFF12E04FF48041A448BA
:10230000FEF7FDFE28B14FF48041A148FEF700FF23
:1023100004E04FF480419E48FEF7FCFE00E000BF61
:1023200000BF9C48005D401C9A4908550846005D66
:1023300002287DD10020085504EB4400934911F890
:10234000300030B1012823D0022872D003281ED1DA
:10235000CAE00020904941F82400904941F8240047
:1023600060B201F017F900208D4921F8140004EB48
:102370004401864A02EBC101486104EB440102EBCF
:10238000C101486004EB440102EBC10108617EE138
:10239000844800EB0410808881B201227A4800F062
:1023A00037FA7D4850F82400401C7B4941F824004E
:1023B00004EB4400754901EBC0004069401C04EB8C
:1023C0004401724A02EBC101486104EB440011462A
:1023D00001EBC000407838B9734850F82400401C25
:1023E000714941F8240006E06F4850F82400401E6F
:1023F0006D4941F82400694850F8240004EB440179
:10240000624A02EBC1014968022202FB010104EBAE
:1024100044005E4A02EBC00040698000401C91FB12
:10242000F0F004EB440102EBC1018988081A01E0D5
:1024300036E1BBE080B22DF81400584850F8240073
:1024400004EB440102EBC1014968022202FB0101D5
:1024500004EB44004D4A02EBC00040698000401C80
:1024600091FBF0F200FB12104C4941F824004A485D
:1024700050F8240004EB4401444A02EBC10189688E
:1024800088420FD304EB4400114601EBC000C06842
:1024900004EB440102EBC1014861022004EB44015A
:1024A00002F831003DF8140004EB4401374A02EB16
:1024B000C1010969884216DC3DF81400384921F849
:1024C000140004EB4400114601EBC000008A80B206
:1024D0002DF814000020314941F82400032004EBBA
:1024E000440102F83100D2E02B4850F82400401C8F
:1024F000294941F8240004EB4400244901EBC000C1
:10250000407838B9284850F82400401C264941F842
:10251000240006E0244850F82400401E224941F8D7
:10252000240004EB4400194901EBC000008A80B28A
:102530002DF81400184850F8240004EB4401134A05
:1025400002EBC101896888421DD304EB44001146A7
:1025500001EBC0008068104941F8240004EB4400FE
:10256000114601EBC000C06804EB440102EBC1015D
:1025700048610B4830F814002DF81400022004EBD9
:10258000440102F8310082E0002C0140E401002007
:1025900000180140C0010020440200205402002025
:1025A000B8010020F4360008D40100203D4850F85E
:1025B0002400401C3B4941F8240004EB44003A4904
:1025C00001EBC000407838B9384850F82400401C6E
:1025D000364941F8240006E0344850F82400401EF3
:1025E000324941F8240004EB44002F4901EBC000BC
:1025F0004069401C04EB44012B4A02EBC1014861D5
:102600002B4850F8240004EB440102EBC101496857
:10261000022202FB010104EB4400234A02EBC0004A
:1026200040698000401C91FBF0F004EB440102EB98
:10263000C1018988081A80B22DF814001C4850F88E
:10264000240004EB440102EBC1014968022202FBB1
:10265000010104EB4400144A02EBC0004069800011
:10266000401C91FBF0F200FB1210114941F82400CC
:1026700004EB44000C4901EBC0004069002805DB75
:10268000002004EB4401084A02F8310000BF00BFFB
:102690003DF8140004EB4401034A02EBC101486019
:1026A0001CBD000044020020E4010020D4010020F1
:1026B0005402002000B587B00121C802FFF744FA98
:1026C00001210846FFF740FA01213848FEF7C6FC11
:1026D000FFF7B4FAFFF7E0FAFFF718FBFFF754FB38
:1026E000FFF790FB4FF6FF70ADF814002320ADF814
:1026F00010000020ADF81600ADF812008DF818009B
:1027000004A92B4800F03EFA3020ADF8000001206B
:10271000ADF802006420ADF806000020ADF8080016
:102720004FF48070ADF80C006946214800F0BAF80B
:1027300000211F4800F002F969461D4800F008F921
:1027400000211B4800F056F96946194800F060F96D
:102750000021174800F0ACF96946154800F0B2F9BD
:102760000021134800F0ECF90121114800F05FF856
:10277000002202210E4800F08CF8002204210C48AF
:1027800000F087F800220821094800F082F80022B2
:102790001021074800F07DF80121054800F02CF8D1
:1027A0000121034800F049F807B000BDC000160041
:1027B000002C014010B501210C4800F059F8012807
:1027C00013D10B480068401C09490860084600689E
:1027D000B0F5486F05D90020FFF712FC012005492C
:1027E00008700121014800F025F810BD00340140B7
:1027F0002C0000202900002021B1028842F0800234
:10280000028004E002884FF67F731A40028070470E
:1028100030B5002301248C40A3B2048C9C43048473
:10282000048C02FA01F5ADB22C43048430BDCA43D6
:1028300002827047CA430282704721B1028842F087
:102840000102028004E002884FF6FE731A40028003
:10285000704731B1B0F8442042F40042A0F844205F
:1028600005E0B0F84420C2F30E02A0F844207047FF
:1028700030B50246002000230024158A05EA010332
:10288000958905EA010413B10CB1012000E0002094
:1028900030BD1AB183890B43838102E083898B4366
:1028A0008381704770B5002400220023058C4FF609
:1028B000FE7635400584028C8388048B4FF68F7535
:1028C0002C40B51E2C400D882C43751E2A400D89C6
:1028D0002A434D882A43144DA8420BD0134DA842D9
:1028E00008D0134DA84205D0124DA84202D0124D77
:1028F000A84213D14FF6F7752A404D892A434FF667
:10290000FB752A408D882A434FF6FF652B404FF612
:10291000FF552B408D892B43CD892B438380048326
:10292000CD888586028470BD002C014000340140B2
:102930000040014000440140004801400A46002197
:10294000018B4FF6F7731940114301837047000064
:1029500070B5002400220023058C4FF6EF76354039
:102960000584028C8388048B48F6FF752C404FF653
:10297000FF452C400D884FF6FF7606EA05252C43CF
:102980004FF6DF752A400D8906EA05152A434D8862
:1029900006EA05152A43154DA84202D0144DA84257
:1029A0001DD14FF67F752A404D894FF6FF7606EA16
:1029B00005152A434FF6BF752A408D8806EA05158E
:1029C0002A434FF6FF352B404FF2FF752B408D8980
:1029D00006EA85052B43CD8906EA85052B438380CE
:1029E0000483CD880587028470BD0000002C01405F
:1029F000003401400A460021018B4FF2FF73194059
:102A00004FF6FF7303EA0223194301837047000066
:102A100070B5002400220023058C4FF6FF66354078
:102A20000584028C8388848B4FF68F752C404FF67B
:102A3000FC752C400D882C434FF6FF552A400D891C
:102A40004FF6FF7606EA05252A434D8806EA052556
:102A50002A43154DA84202D0144DA8421DD14FF271
:102A6000FF752A404D894FF6FF7606EA05252A4371
:102A70004FF6FF352A408D8806EA05252A434EF693
:102A8000FF752B404DF6FF752B408D8906EA051525
:102A90002B43CD8906EA05152B4383808483CD889B
:102AA0008587028470BD0000002C01400034014085
:102AB0000A460021818B4FF6F77319401143818339
:102AC0007047000070B5002200230024058C4EF6EC
:102AD000FF7635400584038C8488828B48F6FF7529
:102AE0002A404FF6FF452A400D884FF6FF7606EA4A
:102AF00005252A434DF6FF752B400D8906EA05355D
:102B00002B434D8806EA05352B430B4DA84202D0D6
:102B10000A4DA84208D14BF6FF752C408D894FF61F
:102B2000FF7606EA85152C4384808283CD88A0F841
:102B30004050038470BD0000002C0140003401406F
:102B40000A460021818B4FF2FF7319404FF6FF7345
:102B500003EA0223194381837047002101804180E9
:102B60008180C180018141818181C18170478185DE
:102B70007047818670470187704781877047A0F84A
:102B800040107047002202881D4B98420ED01D4B0A
:102B900098420BD0B0F1804F08D01B4B984205D023
:102BA0001A4B984202D01A4B984204D14FF68F73B9
:102BB0001A404B881A43174B984207D0164B98423D
:102BC00004D04FF6FF431A40CB881A4302808B880B
:102BD00083850B8803850A4B98420BD0094B98429A
:102BE00008D00E4B984205D00D4B984202D00D4BA9
:102BF000984201D10B7A038601238382704700003B
:102C0000002C014000340140000400400008004056
:102C1000000C004000100040001400400040014043
:102C2000004401400048014010B540F225510948D8
:102C300000F03EF801280CD1064800F0F5F80649EE
:102C4000087001200549087040F22551014800F044
:102C500007F810BD0038014064020020CC010020BC
:102C600010B50022002340F66A14A14200D100BF33
:102C70000A1201249440A3B2DC43048010BD21B1A8
:102C8000828942F40052828104E082894DF6FF730A
:102C90001A408281704702460020B1F5007F00D1C2
:102CA00000BF13880B400BB1012000E000207047EB
:102CB00070B50246002400230025002040F66A1665
:102CC000B14200D100BFC1F3421501F01F0301263C
:102CD00006FA03F3012D02D19689334006E0022D56
:102CE00002D1168A334001E0968A33400C12012645
:102CF00006FA04F41688344013B10CB1012000E048
:102D0000002070BDF0B503460024002600250020F9
:102D100040F66A17B94200D100BF1846C1F3421409
:102D200001F01F06012707FA06F5012C01D10C302E
:102D300004E0022C01D1103000E014301AB1076811
:102D40002F43076002E00768AF430760F0BD000053
:102D50002DE9F04786B005460E460024A24600BF86
:102D6000A1460027B08900B100BF2F462C8A4CF63F
:102D7000FF700440F08804432C82AC894EF6F310B7
:102D80000440B08831890843718908430443AC8109
:102D9000AC8A4FF6FF400440B0890443AC8201A8DE
:102DA000FEF7E2FE1F48874202D1DDF810A001E0E5
:102DB000DDF80CA0A88900F4004040B10AEBCA007D
:102DC00000EB0A1031684900B0FBF1F807E00AEBAC
:102DD000CA0000EB0A1031688900B0FBF1F86420EA
:102DE000B8FBF0F004012009642101FB1089A889D7
:102DF00000F4004040B1322000EBC900B0FBF1F01C
:102E000000F00700044308E0322000EB09106421C1
:102E1000B0FBF1F000F00F0004432C8106B0BDE8D8
:102E2000F08700000038014001468888C0F30800A0
:102E30007047C1F308028280704700BFFEE70000C0
:102E400000B587B001218803FEF77EFE0121042032
:102E5000FEF77AFE18208DF81B004FF40070ADF8D5
:102E6000180003208DF81A0006A92148FEF76AF819
:102E700048208DF81B004FF48060ADF81800032047
:102E80008DF81A0006A91A48FEF75CF84FF41650A0
:102E900002900020ADF814000C20ADF812000020C4
:102EA000ADF81000ADF80E00ADF80C0002A9114805
:102EB000FFF74EFF012240F225510E48FFF722FF97
:102EC0004FF4A060FEF70CFD25208DF804000120D2
:102ED0008DF8070000208DF805008DF8060001A888
:102EE000FEF7C6FC01210348FFF7C9FE07B000BD8D
:102EF000000801400038014002E008C8121F08C164
:102F0000002AFAD170477047002001E001C1121F6A
:102F1000002AFBD17047000001490860704700009B
:102F2000D001002010B520210148FEF7F1F810BDB6
:102F30000010014008B501214020FEF705FE0F20DA
:102F4000ADF8000048208DF8030069460148FDF700
:102F5000F9FF08BD0018014010B501211A48FEF71D
:102F6000C5F838B9002019490870194908600120CE
:102F70001849087002211448FEF7B8F838B9002043
:102F8000124908761249486001201349087004214B
:102F90000D48FEF7ABF840B900200C4981F830002D
:102FA0000B49886001200D49087008210648FEF78A
:102FB0009DF840B90020054981F848000449C860DF
:102FC00001200749087010BD00180140E4010020ED
:102FD000D4010020340000203500002036000020FD
:102FE00037000020FEF716FDFFF72AFFFDF7F8FD7A
:102FF000FDF704FF482144F62060FEF795F84821CC
:1030000044F62060FEF7DAF848216420FDF714FE4C
:10301000FFF790FFFFF74EFB4FF40040FB4908809D
:10302000FDF700FEFAA0FEF711FFFEF703FA73E2C8
:10303000F8480078012812D1F748007801280ED10D
:10304000FEF76EF9FDF7EEFDFEF7F4F90020F14909
:103050000870F1490870F1490870F1490870ED48AD
:103060000078012812D1ED48007801280ED1FEF732
:1030700057F9FDF7D7FDFEF7DDF90020E5490870A7
:10308000E5490870E5490870E5490870E1480078AD
:10309000012812D1E248007801280ED1FEF7D8F8B5
:1030A000FDF7C0FDFEF7C6F90020DA490870DA49DD
:1030B0000870DA490870DA4908700121D948FDF72B
:1030C00081FDD94800780128B1D1D1A0FEF7BEFE1C
:1030D000FDF73AFED548007848BBD448407830BB6D
:1030E000D248807818BBD148C07800BBCF4800795F
:1030F000E8B9CE484079D0B9CC488079B8B9CB4846
:10310000C079A0B90020CA4908700BE00120C74966
:10311000C74A92F900208854C5480078401C40B244
:10312000C3490870C24890F900000828EEDBC1A12D
:10313000C148FDF719F800287ED1C048FEF7AEF966
:10314000BF490870084690F90000002833DD00F000
:10315000F3F9BB4890F90000C0F1080040B2B4494F
:103160000870084690F90000B54991F900108842AE
:1031700011DAFFF7D7FEAE4991F90010C1F108014D
:103180004FF4486201FB02F0C11700EB5171C91006
:10319000AC4A116047E0AA4991F90010C1F1080159
:1031A0004FF4486201FB02F0C11700EB5171C910E6
:1031B000A44A116037E0A24890F90000002832DAF2
:1031C000FFF7B0FE9E480078083040B2984908707A
:1031D000084690F900009A4991F900104942884246
:1031E00011DA00F0A9F9924991F90010C1F1080132
:1031F0004FF4486201FB02F0C11700EB5171C91096
:10320000904A11600FE08E4991F900104942C1F1D6
:1032100008014FF4486201FB02F0C11700EB517145
:10322000C910884A11608148007810B97F48007938
:1032300020B101207A4900E00DE008708248007852
:103240007F490978401A80490870002177487E4AF2
:10325000127881545AE17DA17748FCF785FF002858
:103260007ED17B48FEF752FA7A490870084690F9F9
:103270000000002833DD00F05FF9764890F9000087
:10328000C0F1080040B26A490870084690F9000091
:10329000704991F90010884211DAFFF743FE644942
:1032A00091F90010C1F108014FF4486201FB02F0EE
:1032B000C11700EB5171C910624A116047E06549BE
:1032C00091F90010C1F108014FF4486201FB02F0CE
:1032D000C11700EB5171C9105A4A116037E05D48BF
:1032E00090F90000002832DAFFF71CFE59480078F8
:1032F000083040B24E490870084690F90000554920
:1033000091F900104942884211DA00F015F9484954
:1033100091F90010C1F108014FF4486201FB02F07D
:10332000C11700EB5171C910464A11600FE04949BD
:1033300091F900104942C1F108014FF4486201FBC4
:1033400002F0C11700EB5171C9103E4A11603748B5
:10335000407838B93548C07820B93448807900E0E1
:1033600010E010B101202D49087037480078394924
:103370000978401A3449087000202C49324A1278E2
:103380008854C3E034A12C48FCF7EEFE002869D134
:103390003248FEF70BF932490870084690F90000F0
:1033A000002860DD00F0C8F82D4890F90000C0F159
:1033B000080040B21E490870084690F900002849EC
:1033C00091F90010884211DAFFF7ACFD184991F924
:1033D0000010C1F108014FF4486201FB02F0C1176F
:1033E00000EB5171C910174A116074E01C4991F942
:1033F0000010C1F108014FF4486201FB02F0C1174F
:1034000000EB5171C9100F4A116064E0442C014077
:103410006F6B0000290000203000002031000020E8
:103420003200002000080140CC01002015000020DF
:10343000280000203100000064020020200000204D
:10344000250000202C000020140000203300000084
:103450001D00002026000020320000002200002075
:103460002700002050E02D4890F90000002832DAB3
:10347000FFF758FD29480078083040B22849087005
:10348000084690F90000254991F900104942884208
:1034900011DA00F051F8224991F90010C1F1080148
:1034A0004FF4486201FB02F0C11700EB5171C910E3
:1034B0001C4A11600FE0194991F900104942C1F10D
:1034C00008014FF4486201FB02F0C11700EB517193
:1034D000C910144A11601448807828B912484079FC
:1034E00010B91148C07910B1012010490870104876
:1034F00000780A490978401A0D49087000210A48E5
:103500000B4A1278815401E0FDF784FB3220FEF76C
:1035100077FD0020074908708AE500002700002099
:10352000280000202C000020150000203200002080
:1035300014000020CC01002010B520210148FDF727
:10354000E9FD10BD001001402DE9F04106460F468F
:10355000FDF74DF9041E0D4618BF0120284320F049
:103560000040C0F17F6000F1E040C00F0ED0301C81
:1035700018BF0120384320F00040C0F17F6000F107
:10358000E040C00F04BF0120FFF7C6FC20462946DB
:10359000BDE8F08110B5044634B1012C16D0022CE0
:1035A00026D0032C48D135E002212548FFF742F907
:1035B00002212348FFF73BF900212148FFF7BEF91C
:1035C000002202211E48FFF764F936E004211C485E
:1035D000FFF730F904211A48FFF729F900211848AC
:1035E000FFF708FA002204211548FFF752F924E0FA
:1035F00008211348FFF71EF908211148FFF717F9B2
:1036000000210F48FFF754FA002208210C48FFF769
:1036100040F912E010210A48FFF70CF91021084880
:10362000FFF705F900210648FFF78AFA002210216A
:103630000348FFF72EF900E000BF00BF10BD0000F7
:10364000002C014010B5044634B1012C16D0022CD8
:1036500026D0032C48D135E002212548FFF7EAF8AF
:1036600002212348FFF7E3F808212148FFF766F914
:10367000012202211E48FFF70CF936E004211C4804
:10368000FFF7D8F804211A48FFF7D1F808211848A5
:10369000FFF7B0F9012204211548FFF7FAF824E0FA
:1036A00008211348FFF7C6F808211148FFF7BFF8B3
:1036B00008210F48FFF7FCF9012208210C48FFF709
:1036C000E8F812E010210A48FFF7B4F81021084882
:1036D000FFF7ADF808210648FFF732FA0122102162
:1036E0000348FFF7D6F800E000BF00BF10BD0000A0
:1036F000002C014000020000000000000200000059
:1037000002000000000800000400000004000000A7
:103710000400000000200000080000000800000075
:1037200008000000004000000C0000001000000035
:10373000100000005437000800000020D4010000F1
:10374000B408000800380008D4010020F404000088
:10375000082F0008412D0102030404100906070880
:1037600009020406085A0101011BBC20A10704BC80
:10377000C02709040C2BE0930404BCF04902042385
:10378000D88B3D80C1FFFF041A3EA429A8990411DB
:103790003551FFFFC83808C0F9FFFFD8F5FF0123F6
:1037A000100E27ECFAFFFFC454CBD03930BD586C53
:1037B000FFFF400A107D5429042944A9101AF4057A
:1037C000A910CB0CFE4829782D3CABFFFF9023F0CD
:1037D0000A4FE0FCFFFF78D39029202914490E49B5
:1037E0001029084BC0120829108BB004481A88BC55
:1037F000A958290129E46910295C69A4011C000069
:0400000508000131BD
:00000001FF
