:020000040800F2
:100000009006002045010008CD1E0008911100084F
:10001000E11A0008C50B00082B340008000000009E
:100020000000000000000000000000005B2200084B
:100030001D0C000800000000551F0008B525000831
:100040005F0100085F0100085F0100085F01000810
:100050005F0100085F0100085F0100085F01000800
:100060005F0100085F010008990D00085F010008AA
:100070005F0100085F0100085F0100085F010008E0
:100080005F0100085F0100085F0100085F010008D0
:100090005F0100085F0100085F010008090E000809
:1000A0005F0100085F0100085F01000819260008D1
:1000B0005F0100085F0100085F0100085F010008A0
:1000C0005F0100085F0100085F0100085F01000890
:1000D0005F0100083D3200085F0100085F01000871
:1000E0005F0100085F0100085F0100085F01000870
:1000F000D12D00085F0100085F0100085F010008C2
:100100005F0100085F0100085F0100085F0100084F
:100110005F0100085F0100085F0100085F0100083F
:100120005F0100085F0100085F0100085F0100082F
:10013000DFF80CD000F0ACFB00480047A9360008FF
:10014000900600200648804706480047FEE7FEE785
:10015000FEE7FEE7FEE7FEE7FEE7FEE7FEE7FEE777
:10016000B92500083101000810B5002200E0521C3A
:10017000835C8C5CA34201D1002BF8D1D8B2E1B2F0
:10018000401A10BD80EA010210B502F000434000A1
:1001900022D04A001FD0010E01EB1261C0F35600BD
:1001A000C2F3560240F4000042F40002A0FB022019
:1001B00000047F39140400D0401C50EA124001D4DE
:1001C0004000491EC2B20C0604EBD010401C40088F
:1001D000802A02D003E0002010BD20F00100002999
:1001E00000DA0020184310BD30B480EA010202F0AA
:1001F000004530F0004221F0004013D090B1C30D13
:10020000D40DC2F31601C0F31600E41A41F4000144
:1002100040F400027D34914201D3641C00E04900A7
:10022000002C02DA30BC002070474FF4000000239D
:10023000914201D3891A034340084FEA4101F7D1A3
:1002400051B1914202D14FF0004105E002D24FF08E
:10025000010101E06FF0010103EBC450284430BC00
:1002600000F031BA2DE9FE4F804681EA0300C00F4D
:100270000C46009021F0004123F00045B8EB02004D
:10028000A94105D24046214690461C460B460246EF
:1002900023F00040104347D0270DC7F30A00C3F3F3
:1002A0000A510290401A019040286BDAC3F3130000
:1002B00040F4801B0098924620B10023D2EB030A41
:1002C00063EB0B0B01985946C0F14002504600F019
:1002D000C9F906460D4650465946019A00F0E1F923
:1002E00010EB08006141002487EA115284EAE773A9
:1002F0001A4340D0009A62B3019A012A4FEA07528A
:1003000015DC001B61EB02014FF0004202EA0752CC
:10031000CDE90042001C41F5801132462B4600F029
:1003200018FA03B0BDE8F08F40462146F9E7001BFC
:1003300061EB0201001C41F5801300185B4120189D
:10034000A2F5001747EB030140EAD570B6196D41DD
:1003500011E06D084FEA360645EAC0754FEA0752CC
:10036000001B61EB0201001C41F5801149084FEAB6
:1003700030000019514132462B4603B0BDE8F04F22
:1003800000F0D8B90098012240000023D0EB02020F
:1003900063EBE073009821464FEAE074B8EB00008D
:1003A00061EB0401E9E783F000435BE781F0004182
:1003B00058E72DE9FE4F81EA030404F0004421F0E0
:1003C000004100944FF0000B23F0004350EA010479
:1003D0005ED052EA03045BD0C3F30A54C1F30A555A
:1003E0002C44A4F2F3340194A0FB0254C1F3130192
:1003F00041F48011C3F3130343F4801301FB02445F
:1004000000FB034E840A970A44EA815447EA835763
:10041000A4FB076802958D0A05FB07854FEA932C1C
:1004200004FB0C542705029D4FEA065847EA16378D
:10043000B5EB08056EEB070C870E920E47EA8117A5
:1004400042EA8312A7FB0201B6EB0B0164EB000446
:100450002B0D43EA0C335E1844EB1C50DA46514630
:10046000E7FB0201C5F313044FEA0B3343EA1453CD
:100470004FEA0432019C43EA0603A4F10C040294FF
:10048000009CCDE900B400F064F903B0BDE8F08F42
:1004900000200146F9E72DE9F04D81EA030404F05C
:1004A000004B21F0004514464FF0000A23F00041B4
:1004B00050EA050220D054EA01021DD0C5F30A57C4
:1004C0000246C5F31303C1F31300C1F30A5640F407
:1004D000801543F48013A7EB0608101BD64608F2DC
:1004E000FD3873EB050002D308F1010801E0921812
:1004F0005B41B8F1000F03DA00200146BDE8F08D42
:1005000000204FF48011064684460EE0171B73EB63
:10051000050705D3121B63EB050306434CEA010CE8
:1005200049084FEA300092185B4150EA0107EDD1CB
:1005300052EA030012D082EA040083EA050108436C
:1005400005D0101BAB4106D20122002306E0002299
:100550004FF0004302E06FF0010253101AEB060067
:100560004CEB085110EB0A0041EB0B01BDE8F04DDC
:1005700000F0E0B8C10F80EAE0700844CA07962393
:10058000002100F0A9B896230022114600F0A4B87B
:100590000EB5C10F80EAE0700844CA07002140F29E
:1005A00033438DE80E000A460B4600F0D2F803B044
:1005B00000BD0EB540F2334102910021CDE900119A
:1005C0000A460B4600F0C5F803B000BD20F000401D
:1005D000C10DC0F3160040F400007F2901DA0020AD
:1005E0007047962903DCC1F19601C84070479639DF
:1005F0008840704770B5C1F30A5201F000450024ED
:10060000C1F3130140F2FF3341F480119A4201DA41
:10061000002070BD40F233439A42A2F2334203DC21
:10062000524200F02EF800E090402C43F1D04042BE
:1006300070BD000030B5041E71F1000404DB4FF002
:100640000044404264EB0101141E73F1000405DB19
:100650001C464FF00043524263EB0403994208BF2B
:10066000904230BD202A04DB203A00FA02F100203B
:1006700070479140C2F1200320FA03F319439040E0
:100680007047202A04DB203A21FA02F0002170474B
:1006900021FA02F3D040C2F12002914008431946EA
:1006A0007047202A06DBCB17203A41FA02F043EAD2
:1006B000E07306E041FA02F3D040C2F1200291401B
:1006C0000843194670470029A8BF7047401C4900DD
:1006D00008BF20F00100704710B4B0FA80FC00FAA7
:1006E0000CF050EA010404BF10BC704749B1CCF1D2
:1006F000200421FA04F411FA0CF118BF012121435E
:100700000843A3EB0C01CB1D4FEA00614FEA102018
:1007100042BF002010BC704700EBC35010440029BA
:10072000A4BF10BC7047401C490008BF20F0010066
:1007300010BC704710B5141E73F1000408DA401C99
:1007400041F1000192185B411A4301D120F00100F0
:1007500010BD2DE9F04D92469B4611B1B1FA81F2E0
:1007600002E0B0FA80F220329046FFF77BFF0446A9
:100770000F4640EA0A0041EA0B0153465A46084335
:1007800013D0114653EA010019D0C8F14002504677
:10079000FFF777FF05460E46504659464246FFF79B
:1007A00061FF084305D0012004E020463946BDE83A
:1007B000F08D0020054346EAE0762C4337430A9843
:1007C0006305E40AA0EB08000022FD0A44EA47544E
:1007D0000A3002D500200146E9E7010510196941F8
:1007E000DDE9084500196941BDE8F04DA2E72DE9B2
:1007F000F04D00231A461B1A8A4103DB00200146F4
:10080000BDE8F08DC1F30A52C1F3130141F4801524
:100810004FF0000BD10702D100186D41521E002786
:10082000044640F2FF11384601EB620A3E4680461C
:10083000024600204FF48011FFF723FFC2197141D7
:10084000BB1846EB0100B4EB030C75EB000C04D3B2
:10085000E41A65EB000517460E46241908F101005D
:100860006D4180463428E3DDF91946EB0600091B8B
:10087000A84103D24FF0FF32134601E00022134695
:100880001BEB070046EB0A51BDE8F04DFFF752BFE6
:10089000064C074D06E0E06840F0010394E80700CD
:1008A00098471034AC42F6D3FFF746FCF83D0008F9
:1008B000183E000870B58C1810F8015B15F007039E
:1008C00001D110F8013B2A1106D110F8012B03E0E9
:1008D00010F8016B01F8016B5B1EF9D12B0705D4F1
:1008E0000023521E0DD401F8013BFAE710F8013B3A
:1008F000CB1A921C03E013F8015B01F8015B521E56
:10090000F9D5A142D8D3002070BD00002DE9F04FE9
:100910008BB004460D4616461F46DDF850A04FF03A
:100920000008C14600200A9060B203F0EDF915B945
:100930000BB0BDE8F08F002D1DDA012004EB44015F
:10094000994A02EBC1014870104640789749086007
:100950001046407E9649C1F88C01104690F831004F
:10096000924928310860104690F849009049C1F832
:10097000B4016D421BE0002004EB44018A4A02EB03
:10098000C101487010464078884908601046407E92
:100990008749C1F88C01104690F83100834928310D
:1009A0000860104690F849008149C1F8B401012D52
:1009B00012D1A81E04EB44017B4A02EBC10148613D
:1009C000022004EB440102F831004FF47A7004EB8A
:1009D000440102EBC1014860002D7DD0754991FBB7
:1009E000FAF000EBD071491004EB44026E4B03EBBC
:1009F000C20211616F48B0FBF6FB5846FFF7D9FD04
:100A0000CDE9000103F002F900226B4BCDE90201B0
:100A1000FFF7CFFC0022694BCDE90401FFF73BFD56
:100A200000224FF08043CDE90601FFF734FDCDE908
:100A30000801FFF7DFFD04EB44015B4A02EBC10153
:100A400048600AFB0AF07100B0FBF1F8B8F1000F42
:100A500001D14FF00108F019A84217D9F019FFF79A
:100A600092FD83463846FFF78EFD59460990FFF701
:100A7000BBFB0A902846FFF77DFD09900A99FFF716
:100A800081FB8346FFF7A2FD814604E0F019B5FB28
:100A9000F0F000FB07F9B9F1000F01D14FF00109A7
:100AA000C14508D8A9EB050004EB44013E4A02EB1E
:100AB000C101C8600AE008FB06F0B0FBF7F0404255
:100AC00004EB4401384A02EBC101C86004EB440066
:100AD000354901EBC00000E041E0C06838B94FF093
:100AE000FF3004EB4401304A02EBC101C86004EB63
:100AF00044002D4901EBC000C068284404EB4401C8
:100B0000294A02EBC101886004EB4400114601EB65
:100B1000C000406804EB440102EBC101096988424E
:100B200010DC04EB4400114601EBC000006904EB4B
:100B3000440102EBC1014860032004EB440102F8C8
:100B4000310005E0012004EB4401174A02F83100AE
:100B5000002004EB4401144A02EBC101486124B9AE
:100B60006421174802F00FFB13E0012C04D164212B
:100B7000134802F00AFB0CE0022C04D16421104857
:100B800002F005FB05E0032C03D164210C4802F0C0
:100B900000FB64210A4802F0F4FA0121084802F03F
:100BA00056F900BFC4E60000A801002084012242DB
:100BB0000000224280841E0040A1344100408F404A
:100BC000002C014000BFFEE708B50121202001F004
:100BD000D3F910208DF803004020ADF80000032069
:100BE0008DF802006946044800F0E8F94021024807
:100BF00000F0CCFA08BD00000014014010B54021FF
:100C0000014800F0C3FA10BD0014014010B54021A6
:100C1000014800F0B9FA10BD00140140704700000F
:100C200030B589B005460C460121102001F0A4F929
:100C300010208DF82300ADF8200003208DF822004D
:100C400008A9394800F0BAF91021374800F09CFA99
:100C500010208DF823002020ADF8200003208DF80F
:100C6000220008A9304800F0A9F920212E4800F000
:100C70008BFA18208DF823004FF48070ADF8200017
:100C800003208DF8220008A9274800F097F90121D8
:100C9000480301F071F90020ADF81A00ADF8160014
:100CA000681E80B2ADF81800601E80B2ADF8140066
:100CB00000208DF81C0005A91C4802F06DFA01A85F
:100CC00002F055FA6020ADF804000020ADF80C00E9
:100CD0000120ADF806000020ADF80A0001A9134874
:100CE00002F0A0F90121114802F0BDF84FF4A06014
:100CF00001F026F92C208DF8000001208DF803006A
:100D000000208DF801008DF80200684601F0E0F83F
:100D100001221146054802F0C6F80121034802F0FD
:100D200096F809B030BD00000010014000340140C9
:100D30001548007840B21549087013480078001F24
:100D400040B2487010480078801E40B210490870C8
:100D50000D480078401F40B248700B480078C01F13
:100D600040B2887008480078401E40B209490870B7
:100D700005480078C01E40B2487003480078801FC4
:100D800040B2887070470000280000203400002026
:100D9000310000203600002010B5102000F056F879
:100DA000012823D112480078012817D111A1124837
:100DB000FFF7DAF948B111A10F48FFF7D5F920B1D3
:100DC0000FA10D48FFF7D0F940B9FFF717FF00203A
:100DD0000749087001200B49087004E00020094908
:100DE000087003490870102000F02AF810BD0000B8
:100DF00041000020310000002802002032000000E5
:100E0000330000003D00002010B5202000F01EF847
:100E100001280DD107480078012806D10020064995
:100E2000064A1278885403490870202000F008F818
:100E300010BD0000420000202900002028000020F2
:100E40000149086070470000140401400146002079
:100E50000022074B1B6803EA0102054B14331B6891
:100E60000B4013B10AB1012000E0002070470000E0
:100E7000000401401FB50121402001F07DF801214F
:100E8000084601F079F848208DF80F001020ADF8E1
:100E90000C0003A9134800F091F80421084600F063
:100EA0006DF81020019001208DF80A0000208DF8C7
:100EB00008000C208DF8090001A800F015F84FF487
:100EC000A06001F03DF80A208DF8000001208DF8A7
:100ED000030000208DF801008DF80200684600F044
:100EE000F7FF1FBD00180140002123498279002A25
:100EF0003AD00A46126803689A430B461A600A1DE4
:100F0000126803689A430B1D1A60027911440A683B
:100F100003681A430A60184A0832126803689A4341
:100F2000154B08331A601A1D126803689A43124B56
:100F30000C331A604279102A0ED11A1F1268036806
:100F40001A430D4B08331A601A1D126803681A43BE
:100F5000094B0C331A600DE00749427911440A68C5
:100F600003681A430A6005E0027911440A680368BD
:100F70009A430A60704700000004014030B5002227
:100F80008B071C0F0F2303FA04F20B4B8C1053F842
:100F900024309343084C8D1044F8253023468C10A0
:100FA00053F824308C07240F00FA04F42343024C36
:100FB0008D1044F8253030BD080001402DE9F04186
:100FC000024600250026002000230024002791F877
:100FD00003C00CF00F0591F803C00CF0100CBCF12D
:100FE000000F03D091F802C04CEA050591F800C04B
:100FF000BCF1000F31D0146800202BE04FF0010C41
:101000000CFA00F3B1F800C00CEA03069E4220D1AE
:1010100083004FF00F0C0CFA03F7BC4305FA03FCF6
:101020004CEA040491F803C0BCF1280F06D14FF03C
:10103000010C0CFA00FCC2F814C00AE091F803C0DD
:10104000BCF1480F05D14FF0010C0CFA00FCC2F8BE
:1010500010C0401C0828D1D31460B1F800C0BCF106
:10106000FF0F34DD546800202EE000F1080C4FF033
:10107000010808FA0CF3B1F800C00CEA03069E421E
:1010800021D183004FF00F0C0CFA03F7BC4305FA93
:1010900003FC4CEA040491F803C0BCF1280F05D10D
:1010A00000F1080C08FA0CF8C2F8148091F803C09B
:1010B000BCF1480F07D100F1080C4FF0010808FA05
:1010C0000CF8C2F81080401C0828CED35460BDE84C
:1010D000F0810000F0B50A4600230024002100251D
:1010E00000F00046B6F1004F02D11D4EF16901E05B
:1010F0001B4E7168C0F3034583B200F44016B6F589
:10110000401F08D121F07061154E766826F0706698
:10111000134F7E6012E000F48016B6F5801F06D1F2
:10112000032606FA05F4A14341F0706106E0460D7E
:10113000360103FA06F6B14341F0706122B1460D63
:10114000360103FA06F6314300F00046B6F1004FCF
:1011500002D1034EF16101E0014E7160F0BD00006B
:10116000000001400246002093680B400BB10120B3
:1011700000E00020704702460020D3680B400BB10E
:10118000012000E000207047416170470161704715
:1011900000BFFEE708B50121042000F0EDFE4FF48A
:1011A0008050ADF8000048208DF8030069460248E1
:1011B000FFF704FF08BD00000008014070B50546B8
:1011C0000C46A1B22846FFF7CDFF012808D100BF89
:1011D000A1B22846FFF7C6FF0128F9D0012070BD53
:1011E0000020FCE730B589B005460C4601210820F7
:1011F00000F0C2FE0121042000F0AEFE18208DF8A0
:1012000023004020ADF8200003208DF8220008A91B
:101210001748FFF7D3FE0020ADF81A00ADF816000E
:10122000681E80B2ADF81800601E80B2ADF81400E0
:1012300000208DF81C0005A90E4801F0ADFF01A8A3
:1012400001F095FF6020ADF804000020ADF80C001F
:101250000120ADF806000020ADF80A0001A90548FC
:1012600001F02AFE0121034801F0F1FD09B030BD73
:10127000000C01400008004030B589B005460C461E
:101280000121082000F078FE0121042000F064FE16
:1012900018208DF823008020ADF8200003208DF861
:1012A000220008A91748FFF789FE0020ADF81A00B0
:1012B000ADF81600681E80B2ADF81800601E80B24E
:1012C000ADF8140000208DF81C0005A90E4801F0AF
:1012D00063FF01A801F04BFF6020ADF8040000207F
:1012E000ADF80C000120ADF806000020ADF80A00B2
:1012F00001A9054801F036FE0121034801F0A7FDD0
:1013000009B030BD000C01400008004008B5642061
:1013100002F022F970480068009070480368704835
:10132000026870480168012001F09AF8142002F068
:1013300013F96D48006800906848036868480268BF
:1013400068480168022001F08BF8142002F004F9CB
:101350006648006800906148036861480268614817
:101360000168032001F07CF8142002F0F5F86048D1
:101370000068009059480368594802685948016854
:10138000002001F06DF8142002F0E6F8022000F0D1
:1013900065FF142002F0E0F85648006800904F48BE
:1013A00003684F4802684F480168002001F058F870
:1013B000142002F0D1F850480068009047480368B4
:1013C0004748026847480168012001F049F84B4846
:1013D000006800904148036841480268414801683C
:1013E000022001F03DF84648006800903B48036841
:1013F0003B4802683B480168032001F031F841484E
:10140000006800903548036835480268354801682F
:10141000002001F025F8142002F09EF83A4B2F48E6
:1014200002682F4801682F48006800F0EFFF142081
:1014300002F092F8354B294802682948016829488A
:10144000006800F0E3FF142002F086F8304B2348D8
:101450000268234801682348006800F0D7FF142081
:1014600002F07AF82B4B1D4802681D4801681D48A0
:10147000006800F0CBFF142002F06EF8002000F0AE
:10148000EDFE142002F068F823480068009013482D
:1014900003681348026813480168002000F0E0FF69
:1014A0001E48006800900D4803680D4802680D480A
:1014B0000168022000F0D4FF194800680090074836
:1014C00003680748026807480168032000F0C8FF66
:1014D000142002F041F808BDAC00002058000020A4
:1014E0005C00002054000020B0000020B400002068
:1014F000A8000020B80000209C000020A0000020D0
:10150000A4000020BC000020C8000020E80000204B
:10151000D8000020F8000020C0000020C4000020F7
:101520004801002008B5642002F016F870480068F1
:101530000090704803687048026870480168012094
:1015400000F08EFF142002F007F86D48006800904C
:10155000684803686848026868480168022000F02B
:101560007FFF142001F0F8FF664800680090614892
:1015700003686148026861480168032000F070FF59
:10158000142001F0E9FF60480068009059480368A2
:101590005948026859480168002000F061FF142092
:1015A00001F0DAFF012000F059FE142001F0D4FF11
:1015B0005648006800904F4803684F4802684F48FB
:1015C0000168002000F04CFF142001F0C5FF5048D6
:1015D0000068009047480368474802684748016828
:1015E000012000F03DFF4B4800680090414803682F
:1015F0004148026841480168022000F031FF464836
:10160000006800903B4803683B4802683B4801681B
:10161000032000F025FF414800680090354803682A
:101620003548026835480168002000F019FF142091
:1016300001F092FF3A4B2F4802682F4801682F486B
:10164000006800F0E3FE142001F086FF354B2948C6
:101650000268294801682948006800F0D7FE142074
:1016600001F07AFF304B2348026823480168234881
:10167000006800F0CBFE142001F06EFF2B4B1D48DC
:1016800002681D4801681D48006800F0BFFE142074
:1016900001F062FF002000F0E1FD142001F05CFF8A
:1016A00023480068009013480368134802681348F1
:1016B0000168002000F0D4FE1E48006800900D482C
:1016C00003680D4802680D480168022000F0C8FE5A
:1016D00019480068009007480368074802680748EF
:1016E0000168032000F0BCFE142001F035FF08BDA6
:1016F00050010020580000205C0000205400002011
:101700005C010020600100204C010020B800002096
:10171000680100207001002074010020BC0000203E
:1017200028010020080100203801002018010020B5
:10173000C0000020780100204801002008B5642086
:1017400001F00AFF70480068009070480368704814
:10175000026870480168012000F082FE142001F048
:10176000FBFE6D480068009068480368684802689E
:1017700068480168022000F073FE142001F0ECFEBE
:1017800066480068009061480368614802686148E3
:101790000168032000F064FE142001F0DDFE6048C3
:1017A0000068009059480368594802685948016820
:1017B000002000F055FE142001F0CEFE012000F0C4
:1017C0004DFD142001F0C8FE5648006800904F48B7
:1017D00003684F4802684F480168002000F040FE4F
:1017E000142001F0B9FE5048006800904748036893
:1017F0004748026847480168012000F031FE4B4825
:101800000068009041480368414802684148016807
:10181000022000F025FE4648006800903B4803681F
:101820003B4802683B480168032000F019FE41482C
:1018300000680090354803683548026835480168FB
:10184000002000F00DFE142001F086FE3A4B2F48D8
:1018500002682F4801682F48006800F0D7FD142067
:1018600001F07AFE354B2948026829480168294869
:10187000006800F0CBFD142001F06EFE304B2348D1
:101880000268234801682348006800F0BFFD142067
:1018900001F062FE2B4B1D4802681D4801681D487F
:1018A000006800F0B3FD142001F056FE002000F0A7
:1018B000D5FC142001F050FE234800680090134826
:1018C00003681348026813480168002000F0C8FD4F
:1018D0001E48006800900D4803680D4802680D48D6
:1018E0000168022000F0BCFD19480068009007481C
:1018F00003680748026807480168032000F0B0FD4C
:10190000142001F029FE08BD5401002058000020D9
:101910005C000020540000205C01002060010020D9
:101920004C010020B8000020680100207001002058
:1019300074010020BC000020E8000020C800002046
:10194000F8000020D8000020C0000020780100200E
:101950004801002008B50020274908702749087071
:10196000274908702749087000F078FC142001F01E
:10197000F3FD254800680090244803682448026865
:1019800024480168002000F0DBFD142001F0E4FD94
:10199000214B1E4802681E4801681E48006800F07E
:1019A0007DFD142001F0D8FD1748C068009017484D
:1019B00003681748026817480168032000F0C0FD5B
:1019C0001148806800901148036811480268114866
:1019D0000168022000F0B4FD0B48406800900B48FD
:1019E00003680B4802680B480168012000F0A8FD5D
:1019F000142001F0B1FD08BD50000020510000206E
:101A000052000020530000208C00002064000020C1
:101A100068000020600000206C00002008B5002055
:101A2000264908702649087026490870264908701A
:101A300000F014FC142001F08FFD24480068009091
:101A4000234803682348026823480168002000F007
:101A500077FD142001F080FD204B1D4802681D48D1
:101A600001681D48006800F019FD142001F074FDA4
:101A70001648C06800901648036816480268164861
:101A80000168032000F05CFD104880680090104859
:101A900003681048026810480168022000F050FDF9
:101AA0000A48406800900A4803680A4802680A48E1
:101AB0000168012000F044FD08BD00005000002036
:101AC0005100002052000020530000208C00002014
:101AD0006400002068000020600000207C000020DE
:101AE00000BFFEE72DE9FF5F8146002600240020AD
:101AF0000390002502900190009000BF05E019F8C6
:101B0000050002A94855681CC5B2022DF7DB39480B
:101B1000007810B900208DF808003648007910B917
:101B200000208DF80900012629E0002421E002AA06
:101B3000611C5056FEF72CFD21F00048074602A913
:101B40000857FEF725FD21F0004182463A464346FC
:101B5000FEF770FD0BD202A8005D039002A9601C85
:101B6000085C0855039841B202AA601C1154601C1D
:101B7000C4B2C6F10200A042D9DC701CC6B2022E6B
:101B8000D3DB9DF90800FEF703FD21F00041074675
:101B9000FEF730FD40B201909DF90900FEF7F8FC18
:101BA00021F0004107460022134BFEF7FFFB82465F
:101BB000FEF720FD40B200909DF8080080B90D4866
:101BC000007820B99DF9090004B0BDE8F09F0948EC
:101BD000007910B99DF90900F6E79DF90800F3E7CF
:101BE000DDE90010884202DC9DF90800ECE79DF970
:101BF0000900E9E729000020000020402DE9FF5FEF
:101C00008146002600240020039000250290824691
:101C1000834600BF05E019F8050002A94855681C75
:101C2000C5B2032DF7DB4D48407810B900208DF880
:101C300008004A48C07810B900208DF809004748CC
:101C4000807910B900208DF80A0001262AE00024CE
:101C500022E002AA611C5056FEF79AFC21F00048CF
:101C6000074602A90857FEF793FC21F000413A46C7
:101C70004346CDE90001FEF7DDFC0BD202A8005D72
:101C8000039002A9601C085C0855039841B202AA9F
:101C9000601C1154601CC4B2C6F10300A042D8DC21
:101CA000701CC6B2032ED2DB9DF8080080BB9DF8E5
:101CB000090048B99DF80A0018B9002004B0BDE831
:101CC000F09F9DF90A00F9E79DF90900FEF760FC15
:101CD00021F000410746FEF78DFC4FFA80FA9DF98E
:101CE0000A00FEF755FC21F00041074600221C4B7C
:101CF000FEF75CFBCDE90001FEF77CFC4FFA80FBB0
:101D0000DA4502DC9DF90900D8E79DF90A00D5E71C
:101D1000FFE79DF90800FEF73BFC21F00041074674
:101D2000FEF768FC4FFA80FA9DF90A00FEF730FCD6
:101D300021F0004100220A4BCDE90001FEF736FBFD
:101D40000746FEF757FC4FFA80FBDA4502DC9DF9A7
:101D50000800B3E79DF90A00B0E700002900002061
:101D6000000020402DE9FF5F81460026002400206E
:101D70000390002502908246834600BF05E019F8D3
:101D8000050002A94855681CC5B2032DF7DB4D4874
:101D9000807810B900208DF808004A48407910B9C1
:101DA00000208DF809004748C07910B900208DF84F
:101DB0000A0001262AE0002422E002AA611C5056F3
:101DC000FEF7E6FB21F00048074602A90857FEF798
:101DD000DFFB21F000413A464346CDE90001FEF722
:101DE00029FC0BD202A8005D039002A9601C085CCC
:101DF0000855039841B202AA601C1154601CC4B279
:101E0000C6F10300A042D8DC701CC6B2032ED2DBA0
:101E10009DF8080080BB9DF8090048B99DF80A00AC
:101E200018B9002004B0BDE8F09F9DF90A00F9E759
:101E30009DF90900FEF7ACFB21F000410746FEF7D3
:101E4000D9FB4FFA80FA9DF90A00FEF7A1FB21F0B9
:101E50000041074600221C4BFEF7A8FACDE900011D
:101E6000FEF7C8FB4FFA80FBDA4502DC9DF909005A
:101E7000D8E79DF90A00D5E7FFE79DF90800FEF7CE
:101E800087FB21F000410746FEF7B4FB4FFA80FACA
:101E90009DF90A00FEF77CFB21F0004100220A4B6D
:101EA000CDE90001FEF782FA0746FEF7A3FB4FFAE1
:101EB00080FBDA4502DC9DF90800B3E79DF90A00D2
:101EC000B0E700002900002000002040704700001B
:101ED00070B5002100230F22C47804B3154C246888
:101EE00004F4E064C4F5E064210AC1F10403CA40CB
:101EF000447804FA03F184781440214309010E4C1C
:101F00000678A155047804F01F050124AC4005783B
:101F10006D11AD0005F1E025C5F8004109E0047838
:101F200004F01F050124AC40044D0678761145F8F5
:101F3000264070BD0CED00E000E400E080E100E030
:101F400002490143024A1160704700000000FA058F
:101F50000CED00E07047000029B1064AD269024347
:101F6000044BDA6104E0034AD2698243014BDA612F
:101F7000704700000010024029B1064A92690243EE
:101F8000044B9A6104E0034A92698243014B9A61CF
:101F9000704700000010024030B5002100220024EC
:101FA00000232D4D6D6805F00C0121B1042905D0E9
:101FB000082923D105E0294D056022E0274D056061
:101FC0001FE0254D6D6805F47012234D6D6805F412
:101FD0008034022505EB92421CB9214D5543056022
:101FE0000BE01D4D6D6805F400351DB11C4D5543CA
:101FF000056002E0194D5543056002E0174D05608C
:1020000000BF00BF144D6D6805F0F0010909154DC2
:102010006B5C0568DD4045600F4D6D6805F4E0615F
:10202000090A104D6B5C4568DD4085600A4D6D689E
:1020300005F46051C90A0B4D6B5C4568DD40C56015
:10204000054D6D6805F44041890B074D6B5CC56813
:10205000B5FBF3F5056130BD0010024000127A00B7
:1020600000093D00140000202400002008B50121D3
:102070001020FFF781FF0320ADF8000010208DF83D
:10208000030003208DF8020069460D48FEF796FF15
:1020900001210B48FFF778F801214020FFF76CFF82
:1020A0004FF40070ADF8000010208DF803000320FD
:1020B0008DF8020069460348FEF780FF08BD000066
:1020C000001001400018014008B501214020FFF731
:1020D00053FF01211020FFF74FFF0820ADF800004B
:1020E00010208DF8030003208DF802006946114886
:1020F000FEF764FF4FF40060ADF8000010208DF88B
:10210000030003208DF8020069460B48FEF756FFD6
:102110000420ADF8000010208DF8030003208DF896
:10212000020069460348FEF749FF04210148FFF712
:102130002BF808BD001001400018014008B501212E
:102140004020FFF719FF01211020FFF715FF4FF482
:102150000060ADF8000010208DF8030003208DF81A
:10216000020069461248FEF729FF4FF40050ADF80F
:10217000000010208DF8030003208DF8020069464E
:102180000C48FEF71BFF4FF48060ADF800001020F4
:102190008DF8030003208DF8020069460448FEF71D
:1021A0000DFF4FF480610248FEF7EEFF08BD00000E
:1021B000001001400018014008B501214020FFF740
:1021C000DBFE01211020FFF7D7FE4FF40050ADF8E1
:1021D000000010208DF8030003208DF802006946EE
:1021E0001248FEF7EBFE4FF48040ADF800001020DF
:1021F0008DF8030003208DF8020069460C48FEF7B5
:10220000DDFE4FF48050ADF8000010208DF8030083
:1022100003208DF8020069460448FEF7CFFE4FF414
:1022200080510248FEF7B0FF08BD000000100140D9
:102230000018014008B54FF4A060FFF781FE1B2095
:102240008DF8000001208DF801008DF802008DF856
:1022500003006846FFF73CFE08BD704710B5044612
:1022600034B1012C0DD0022C14D0032C24D11AE04F
:102270001249002000F02EF81149012000F02AF840
:102280001AE01049002000F025F80D49012000F067
:1022900021F811E00949002000F01CF80A4901204A
:1022A00000F018F808E00949002000F013F8084988
:1022B000012000F00FF800BF00BF10BD0000FA437E
:1022C0000080BB440000FA440000E1430000964354
:1022D0000000164370B504460D4614B1012C12D10E
:1022E00008E02846FEF772F986B23146074800F04A
:1022F0004AFF08E02846FEF769F986B231460348EE
:1023000000F043FF00BF00BF70BD000000080040A8
:1023100010B500F001F810BD0CB500200190009040
:102320003348006840F480303149086000BF3048CD
:10233000006800F4003000900198401C0190009863
:1023400018B90198B0F5A06FF1D12948006800F4E0
:10235000003010B10120009001E0002000900098B2
:10236000012843D12348006840F01000214908604B
:102370000846006820F0030008600846006840F046
:10238000020008601A4840681949486008464068D9
:1023900048600846406840F48060486008464068ED
:1023A00020F47C1048600846406840F4E81048601B
:1023B0000846006840F08070086000BF0C48006864
:1023C00000F000700028F9D00948406820F00300B0
:1023D000074948600846406840F00200486000BF76
:1023E0000348406800F00C000828F9D10CBD00003B
:1023F000001002400020024010B504462146024869
:1024000000F0C5FE10BD000000340140F8B50646DE
:102410000F4614461D4600943B463246012069682B
:10242000FEF774FA00943B4632460220A968FEF794
:102430006DFA00943B4632460320E968FEF766FADF
:102440000BE00648007E40B9044890F8300020B9FF
:10245000024890F8480000B9F8BDF2E7A801002052
:102460002DE9F84304460D4616461F46DDF8208048
:10247000142001F071F833462A4641462046009761
:10248000FEF744FA07E004EB4400034911F830007A
:1024900008B9BDE8F883F6E7A8010020F8B50646BC
:1024A0000F4614461D4600943B463246012069689B
:1024B000FEF72CFA00943B4632460220A968FEF74C
:1024C00025FA00943B4632460320E968FEF71EFADF
:1024D000642001F041F800943B4632460020296810
:1024E000FEF714FA20E001F099F81048007801286E
:1024F0000BD10F480078012807D10E480078012839
:1025000003D10D48007801280DD00C48007858B947
:102510000A48007E40B9094890F8300020B90748C1
:1025200090F8480000B9F8BDDDE700005000002039
:10253000510000205200002053000020A80100207C
:102540002DE9F84304460D4616461F46DDF8208067
:1025500033462A46414620460097FEF7D7F90948F8
:10256000C0F800800CE0204601F036F8012805D0C4
:1025700004EB4400044911F8300008B9BDE8F883C1
:10258000F1E700004C000020A8010020042808D139
:102590004FF0E021096941F004014FF0E0221161A0
:1025A00007E04FF0E021096921F004014FF0E0223B
:1025B000116170477047000010B51348006840F083
:1025C00001001149086008464068104908400E495A
:1025D0004860084600680E4908400B4908600846F4
:1025E000006820F4802008600846406820F4FE005F
:1025F00048604FF41F008860FFF78AFE4FF00060CC
:102600000449086010BD0000001002400000FFF8FF
:10261000FFFFF6FE08ED00E01CB5002000900190E1
:102620000221FE4800F02EFCB8B10020FC490870E1
:102630000846007800EB4000FA4A02EBC0008088B0
:1026400081B2F64800F09FFD0221F44800F0FCFB47
:102650000221F24800F0F5FB55E00421EF4800F0BC
:1026600011FCB8B10120EE4908700846007800EB73
:102670004000EC4A02EBC000808881B2E74800F0DD
:1026800084FD0421E54800F0DFFB0421E34800F06D
:10269000D8FB38E00821E14800F0F4FBB8B1022093
:1026A000DF4908700846007800EB4000DD4A02EB85
:1026B000C000808881B2D94800F069FD0821D74860
:1026C00000F0C2FB0821D54800F0BBFB1BE0102145
:1026D000D24800F0D7FBB0B10320D14908700846BA
:1026E000007800EB4000CF4A02EBC000808881B246
:1026F000CA4800F04EFD1021C84800F0A5FB10218B
:10270000C64800F09EFBC648007800EB4000C54A72
:1027100002EBC000808881B2C04800F032FDC048A2
:10272000007800EB4000BF4911F83000002853D07A
:10273000BB48007830B1012816D0022826D00328E3
:1027400048D135E04FF40071B748FEF714FD28B1C9
:102750004FF40071B448FEF717FD04E04FF4007128
:10276000B148FEF713FD36E04FF40061AE48FEF7C6
:1027700002FD28B14FF40061AB48FEF705FD04E00F
:102780004FF40061A848FEF701FD24E04FF400512A
:10279000A548FEF7F0FC28B14FF40051A248FEF71F
:1027A000F3FC04E04FF400519F48FEF7EFFC12E009
:1027B0004FF480419C48FEF7DEFC28B14FF4804185
:1027C0009948FEF7E1FC04E04FF480419648FEF79B
:1027D000DDFC00E000BF00BF944891490978405CEF
:1027E000401C92498E4A1278885408468C490978D0
:1027F000405C02287CD100208C49894A1278885498
:102800008748007800EB4000864911F8300030B16D
:10281000012831D002286CD003282CD12EE10021D0
:1028200083487F4A127840F8221082487C4A127806
:1028300040F822107A48007840B201F00DFA0020EA
:102840007D49774A127821F812007549097801EB21
:102850004101744A02EBC10148617149097801EBF9
:10286000410102EBC10148606D49097801EB41016A
:1028700002EBC101086111E27048694A127800EB6D
:102880000210808881B20122644800F0CBFA6848C7
:102890006349097850F82100401C6549604A127864
:1028A00041F822005E48007800EB40005D4901EBF2
:1028B000C0004069401C5A49097801EB4101594A5E
:1028C00002EBC10148615648007800EB4000114618
:1028D00001EBC000407868B959485149097850F86F
:1028E0002100401C56494E4A127841F822000CE063
:1028F000E1E139E152484A49097850F82100401E87
:102900004F49474A127841F822004A484449097819
:1029100050F821004249097801EB4101414A02EB9C
:10292000C1014968022202FB01013D48007800EB29
:1029300040003C4A02EBC00040698000401C91FB13
:10294000F0F03749097801EB410102EBC1018988B8
:10295000081A81B2324A12782DF8121035483049DF
:10296000097850F821002E49097801EB41012D4AE0
:1029700002EBC1014968022202FB010128480078EC
:1029800000EB4000274A02EBC00040698000401C79
:1029900091FBF0F200FB12112648214A127840F810
:1029A000221023481E49097850F821001C49097853
:1029B00001EB41011B4A02EBC1018968884215D332
:1029C0001748007800EB4000114601EBC000C068DA
:1029D0001349097801EB410102EBC1014861022072
:1029E0000F49097801EB410102F831000C490978DF
:1029F0003DF811000A49097801EB4101094A02EB4F
:102A0000C1010969884238DC054909783DF811108F
:102A10000948034A127820F8121013E0002C0140F4
:102A20007C010020A8010020001801408601002040
:102A300008020020180200207E010020B83D000896
:102A4000980100209C48007800EB40009B4901EB76
:102A5000C000008A81B2984A12782DF81210002125
:102A60009748954A127840F8221003209249097835
:102A700001EB4101914A02F831000FE191488E4982
:102A8000097850F82100401C8E498B4A127841F891
:102A900022008948007800EB4000884901EBC00023
:102AA000407858B988488449097850F82100401C7A
:102AB0008549814A127841F822000AE082487E491D
:102AC000097850F82100401E7F497B4A127841F86E
:102AD00022007948007800EB4000784901EBC00003
:102AE000008A80B2744A12782DF812007548724933
:102AF000097850F821007049097801EB41016F4ACB
:102B000002EBC101896888422DD36B48007800EB45
:102B10004000114601EBC00081686A48664A12789D
:102B200040F822106448007800EB4000634901EB54
:102B3000C000C0686049097801EB41015F4A02EBBF
:102B4000C101486161485C49097830F811105A4A5E
:102B500012782DF8121002205749097801EB410133
:102B6000564A02F8310099E056485349097850F81E
:102B70002100401C5349504A127841F822004E4827
:102B8000007800EB40004D4901EBC000407858B997
:102B90004D484949097850F82100401C4A49464AA5
:102BA000127841F822000AE047484349097850F872
:102BB0002100401E4449404A127841F822003E4814
:102BC000007800EB40003D4901EBC0004069401C2B
:102BD0003949097801EB4101384A02EBC1014861EA
:102BE00037483549097850F821003349097801EB15
:102BF000410102EBC1014968022202FB01012E489A
:102C0000007800EB40002D4A02EBC00040698000D4
:102C1000401C91FBF0F02849097801EB410102EBDF
:102C2000C1018988081A80B2234A12782DF812004F
:102C300023482149097850F821001F49097801EB00
:102C400041011E4A02EBC1014968022202FB010157
:102C50001948007800EB4000184A02EBC0004069B8
:102C60008000401C91FBF0F200FB12101449124A44
:102C7000127841F822001048007800EB40000F491C
:102C800001EBC0004069002807DB00200A490978F1
:102C900001EB4101094A02F8310000BF00BF0649BB
:102CA00009783DF811000449097801EB4101034A14
:102CB00002EBC10148601CBD7C010020A80100207E
:102CC0001802002008020020980100207E01002048
:102CD00000B587B00121C802FFF74EF9012108466F
:102CE000FFF74AF901213848FEF7F4F9FFF7BEF97A
:102CF000FFF7EAF9FFF722FAFFF75EFAFFF79AFA11
:102D00004FF6FF70ADF814002320ADF8100000203E
:102D1000ADF81600ADF812008DF8180004A92B4884
:102D200000F03AFA3020ADF800000120ADF80200C2
:102D30006420ADF806000020ADF808004FF4807064
:102D4000ADF80C006946214800F0B6F800211F4894
:102D500000F0FEF869461D4800F004F900211B4808
:102D600000F052F96946194800F05CF90021174853
:102D700000F0A8F96946154800F0AEF900211348A3
:102D800000F0E8F90121114800F05BF8002202216F
:102D90000E4800F088F8002204210C4800F083F867
:102DA00000220821094800F07EF80022102107487F
:102DB00000F079F80121054800F028F801210348C6
:102DC00000F045F807B000BDC0001600002C01401F
:102DD00010B501210B4800F055F8012810D10A4820
:102DE0000068401C0849086008460068B0F5FA3FD2
:102DF00002D90020FFF700FB0121024800F024F86F
:102E000010BD0000003401404800002021B10288BC
:102E100042F08002028004E002884FF67F731A407D
:102E20000280704730B5002301248C40A3B2048C8B
:102E30009C430484048C02FA01F5ADB22C43048453
:102E400030BDCA4302827047CA430282704721B133
:102E5000028842F00102028004E002884FF6FE730D
:102E60001A400280704731B1B0F8442042F4004269
:102E7000A0F8442005E0B0F84420C2F30E02A0F808
:102E80004420704730B50246002000230024158AF4
:102E900005EA0103958905EA010413B10CB101208B
:102EA00000E0002030BD1AB183890B43838102E02A
:102EB00083898B438381704770B5002400220023EF
:102EC000058C4FF6FE7635400584028C8388048B92
:102ED0004FF68F752C40B51E2C400D882C43751E67
:102EE0002A400D892A434D882A43144DA8420BD00D
:102EF000134DA84208D0134DA84205D0124DA84248
:102F000002D0124DA84213D14FF6F7752A404D89D1
:102F10002A434FF6FB752A408D882A434FF6FF65FA
:102F20002B404FF6FF552B408D892B43CD892B43EA
:102F300083800483CD888586028470BD002C014087
:102F4000003401400040014000440140004801407D
:102F50000A460021018B4FF6F77319401143018394
:102F60007047000070B5002400220023058C4FF646
:102F7000EF7635400584028C8388048B48F6FF7514
:102F80002C404FF6FF452C400D884FF6FF7606EAA1
:102F900005252C434FF6DF752A400D8906EA0515F5
:102FA0002A434D8806EA05152A43154DA84202D04A
:102FB000144DA8421DD14FF67F752A404D894FF61A
:102FC000FF7606EA05152A434FF6BF752A408D881D
:102FD00006EA05152A434FF6FF352B404FF2FF75E1
:102FE0002B408D8906EA85052B43CD8906EA8505A8
:102FF0002B4383800483CD880587028470BD000045
:10300000002C0140003401400A460021018B4FF2A0
:10301000FF7319404FF6FF7303EA0223194301833C
:103020007047000070B5002400220023058C4FF685
:10303000FF6635400584028C8388848B4FF68F753C
:103040002C404FF6FC752C400D882C434FF6FF5555
:103050002A400D894FF6FF7606EA05252A434D885A
:1030600006EA05252A43154DA84202D0144DA84270
:103070001DD14FF2FF752A404D894FF6FF7606EAC3
:1030800005252A434FF6FF352A408D8806EA052597
:103090002A434EF6FF752B404DF6FF752B408D8968
:1030A00006EA05152B43CD8906EA05152B438380D7
:1030B0008483CD888587028470BD0000002C014088
:1030C000003401400A460021818B4FF6F773194006
:1030D000114381837047000070B500220023002453
:1030E000058C4EF6FF7635400584038C8488828BF0
:1030F00048F6FF752A404FF6FF452A400D884FF6E7
:10310000FF7606EA05252A434DF6FF752B400D890B
:1031100006EA05352B434D8806EA05352B430B4D52
:10312000A84202D00A4DA84208D14BF6FF752C40A8
:103130008D894FF6FF7606EA85152C4384808283BD
:10314000CD88A0F84050038470BD0000002C0140E1
:10315000003401400A460021818B4FF2FF73194071
:103160004FF6FF7303EA022319438183704700215E
:10317000018041808180C180018141818181C18143
:1031800070478185704781867047018770478187C6
:103190007047A0F840107047002202881D4B9842EB
:1031A0000ED01D4B98420BD0B0F1804F08D01B4B76
:1031B000984205D01A4B984202D01A4B984204D13B
:1031C0004FF68F731A404B881A43174B984207D01B
:1031D000164B984204D04FF6FF431A40CB881A434F
:1031E00002808B8883850B8803850A4B98420BD01D
:1031F000094B984208D00E4B984205D00D4B98428F
:1032000002D00D4B984201D10B7A038601238382B1
:1032100070470000002C01400034014000040040D1
:1032200000080040000C0040001000400014004066
:1032300000400140004401400048014010B540F208
:103240002551094800F031F801280CD1064800F05A
:10325000E7F80649087001200549087040F2255139
:10326000014800F007F810BD003801402802002096
:103270009201002010B50022002340F66A14A142FA
:1032800000D100BF0A1201249440A3B2DC430480A1
:1032900010BD21B1828942F40052828104E082890A
:1032A0004DF6FF731A408281704770B502460024C4
:1032B00000230025002040F66A16B14200D100BF6D
:1032C000C1F3421501F01F03012606FA03F3012D95
:1032D00002D19689334006E0022D02D1168A33408E
:1032E00001E0968A33400C12012606FA04F416888F
:1032F000344013B10CB1012000E0002070BDF0B5E6
:103300000346002400260025002040F66A17B94233
:1033100000D100BF1846C1F3421401F01F06012777
:1033200007FA06F5012C01D10C3004E0022C01D182
:10333000103000E014301AB107682F43076002E034
:103340000768AF430760F0BD2DE9F04786B005463A
:103350000E460024A24600BFA1460027B08900B156
:1033600000BF2F462C8A4CF6FF700440F0880443BF
:103370002C82AC894EF6F3100440B08831890843A2
:10338000718908430443AC81AC8A4FF6FF40044086
:10339000B0890443AC8201A8FEF7FEFD1F488742B6
:1033A00002D1DDF810A001E0DDF80CA0A88900F43E
:1033B000004040B10AEBCA0000EB0A103168490036
:1033C000B0FBF1F807E00AEBCA0000EB0A10316825
:1033D0008900B0FBF1F86420B8FBF0F0040120098B
:1033E000642101FB1089A88900F4004040B132201B
:1033F00000EBC900B0FBF1F000F00700044308E067
:10340000322000EB09106421B0FBF1F000F00F0056
:1034100004432C8106B0BDE8F0870000003801406D
:1034200001468888C0F30800704700BFFEE700002F
:1034300000B587B001218803FEF79EFD012104201D
:10344000FEF79AFD18208DF81B004FF40070ADF8C0
:10345000180003208DF81A0006A92148FDF7AEFDDB
:1034600048208DF81B004FF48060ADF81800032051
:103470008DF81A0006A91A48FDF7A0FD4FF4165062
:1034800002900020ADF814000C20ADF812000020CE
:10349000ADF81000ADF80E00ADF80C0002A911480F
:1034A000FFF752FF012240F225510E48FFF727FF98
:1034B0004FF4A060FEF744FD25208DF804000120A4
:1034C0008DF8070000208DF805008DF8060001A892
:1034D000FEF7FEFC01210348FFF7DBFE07B000BD4D
:1034E000000801400038014002E008C8121F08C16E
:1034F000002AFAD170477047002001E001C1121F75
:10350000002AFBD1704700000149086070470000A5
:103510009401002010B56FF00400FFF737F80A4857
:1035200000680A49B0FBF1F00949087008460078C4
:1035300000EB4001C1EBC0104FF6FF7101EAC00083
:103540000449088010BD00000000002000127A002D
:1035500044000020460000200146114A12884A43D8
:103560004FF0E0235A6100229A611A46126942F034
:1035700001021A6100BF4FF0E022106900F0010261
:103580001AB100F48032002AF5D04FF0E02212691F
:1035900022F001024FF0E0231A6100229A61704785
:1035A0004600002010B520210148FDF7EDFD10BDBB
:1035B0000010014008B501214020FEF7DDFC0F207E
:1035C000ADF8000048208DF8030069460148FDF77A
:1035D000F5FC08BD0018014010B504460B4A02EB8B
:1035E0008400D0F8000181B20948FDF7BBFD50B955
:1035F000002004EB4401074A02F83100064941F873
:103600002400012010BD0020FCE700000000234240
:1036100000180140A80100209801002010B50121E8
:103620001A48FDF79FFD38B900201949087019495B
:10363000086001201849087002211448FDF792FD26
:1036400038B9002012490876124948600120134910
:10365000087004210D48FDF785FD40B900200C4994
:1036600081F830000B49886001200D49087008215D
:103670000648FDF777FD40B90020054981F848006C
:103680000449C86001200749087010BD00180140B6
:10369000A8010020980100205000002051000020C7
:1036A0005200002053000020FDF774FDFFF7C0FE1C
:1036B000FFF730FFFDF788FAFDF7DCFB482144F601
:1036C0002060FDF78FFD482144F62060FDF7D4FD12
:1036D00048216420FDF7A4FAFFF76CFFFFF7F8FA22
:1036E0004FF40040F849088000BF4FF48051F7487C
:1036F000FDF764FD0128F8D0FEF790F9FDF786FA92
:103700006AE2FEF727F9FDF701FEFEF723F9FDF760
:1037100009FFFEF71FF9FEF711F800BFEC4800782B
:10372000012829D1FEF716F9EA480078012805D1C9
:10373000FDF7F8FE0120E849087012E0E74800783C
:10374000012805D1FDF7E2FD0120E349087008E0FA
:10375000E3480078012804D1FDF7F0FF0120DE499D
:1037600008700020DA490870DA490870DB490870EF
:10377000DB490870FDF74AFADA4800780128BFD122
:10378000FDF7D6FAD848007848BBD748407830BB18
:10379000D548807818BBD448C07800BBD24800799F
:1037A000E8B9D1484079D0B9CF488079B8B9CE4886
:1037B000C079A0B90020CD4908700BE00120CA49AA
:1037C000CA4A92F900208854C8480078401C40B288
:1037D000C6490870C54890F900000828EEDBC4A16E
:1037E000C448FCF7C1FC00287ED1C348FEF77AF933
:1037F000C2490870084690F90000002833DD00F047
:10380000FDF9BE4890F90000C0F1080040B2B74988
:103810000870084690F90000B84991F900108842F4
:1038200011DAFFF7BFFEB14991F90010C1F10801AB
:103830004FF4FA3201FB02F0C11700EB5171C910CD
:10384000AF4A116047E0AD4991F90010C1F108019C
:103850004FF4FA3201FB02F0C11700EB5171C910AD
:10386000A74A116037E0A54890F90000002832DA35
:10387000FFF798FEA1480078083040B29B490870D5
:10388000084690F900009D4991F90010494288428C
:1038900011DA00F0B3F9954991F90010C1F108016E
:1038A0004FF4FA3201FB02F0C11700EB5171C9105D
:1038B000934A11600FE0914991F900104942C1F11A
:1038C00008014FF4FA3201FB02F0C11700EB51710D
:1038D000C9108B4A11608448007810B98248007979
:1038E00020B101207E4900E011E008708548007891
:1038F00082490978401A8349087000217A48814A30
:10390000127881547D48007800287DD15EE17EA147
:103910007848FCF729FC002877D17C48FEF722FA8A
:103920007B490870084690F90000002833DD00F05C
:1039300065F9774890F90000C0F1080040B26B4982
:103940000870084690F90000714991F9001088420A
:1039500011DAFFF727FE654991F90010C1F108015E
:103960004FF4FA3201FB02F0C11700EB5171C9109C
:10397000634A116047E0664991F90010C1F10801FE
:103980004FF4FA3201FB02F0C11700EB5171C9107C
:103990005B4A116037E05E4890F90000002832DA97
:1039A000FFF700FE5A480078083040B24F490870CF
:1039B000084690F90000564991F9001049428842A2
:1039C00011DA00F01BF9494991F90010C1F1080121
:1039D0004FF4FA3201FB02F0C11700EB5171C9102C
:1039E000474A11600FE04A4991F900104942C1F17C
:1039F00008014FF4FA3201FB02F0C11700EB5171DC
:103A0000C9103F4A116001E0DCE018E036488078D8
:103A100028B93548407910B93348C07910B1012030
:103A20002E4908703748007839490978401A3549D5
:103A3000087000202C49334A12788854C2E035A11E
:103A40002C48FCF791FB00283DD13348FEF7D6F80F
:103A500032490870084690F90000002860DD00F047
:103A6000CDF82E4890F90000C0F1080040B21F497F
:103A70000870084690F90000284991F90010884222
:103A800011DAFFF78FFD194991F90010C1F1080112
:103A90004FF4FA3201FB02F0C11700EB5171C9106B
:103AA000174A116074E01D4991F90010C1F1080135
:103AB0004FF4FA3201FB02F0C11700EB5171C9104B
:103AC0000F4A116064E07CE0442C01400008014092
:103AD0003D0000203F000020420000204000002068
:103AE0003E00002092010020290000203C00002020
:103AF000310000002802002034000020390000209E
:103B00004800002028000020330000003100002081
:103B10003A00002032000000360000203B00002068
:103B20002E4890F90000002832DAFFF73BFD2B48C1
:103B30000078083040B22A490870084690F9000021
:103B4000264991F900104942884211DA00F056F8EE
:103B5000234991F90010C1F108014FF4FA3201FB39
:103B600002F0C11700EB5171C9101E4A11600FE03D
:103B70001A4991F900104942C1F108014FF4FA3293
:103B800001FB02F0C11700EB5171C910154A116019
:103B90001548407828B91448C07810B9124880797F
:103BA00010B1012011490870114800780B490978BB
:103BB000401A0F49087000200B490D4A12788854AA
:103BC00000E0ABE53220FEF717FC00BF01200949F9
:103BD000087000200849087093E500003B000020B1
:103BE0003C00002048000020290000203F00002069
:103BF00028000020410000209201002010B5202163
:103C00000148FDF7C3FA10BD001001402DE9F04155
:103C100006460F46FCF7EBFD041E0D4618BF0120BB
:103C2000284320F00040C0F17F6000F1E040C00F69
:103C30000ED0301C18BF0120384320F00040C0F1E6
:103C40007F6000F1E040C00F04BF0120FFF75CFC83
:103C500020462946BDE8F08110B5044634B1012C58
:103C600016D0022C26D0032C48D135E0022125485D
:103C7000FFF7EAF802212348FFF7E3F80021214883
:103C8000FFF766F9002202211E48FFF70CF936E023
:103C900004211C48FFF7D8F804211A48FFF7D1F88F
:103CA00000211848FFF7B0F9002204211548FFF75A
:103CB000FAF824E008211348FFF7C6F80821114854
:103CC000FFF7BFF800210F48FFF7FCF90022082199
:103CD0000C48FFF7E8F812E010210A48FFF7B4F8A3
:103CE00010210848FFF7ADF800210648FFF732FA27
:103CF000002210210348FFF7D6F800E000BF00BF04
:103D000010BD0000002C014010B5044634B1012C58
:103D100016D0022C26D0032C48D135E002212548AC
:103D2000FFF792F802212348FFF78BF8082121487A
:103D3000FFF70EF9012202211E48FFF7B4F836E022
:103D400004211C48FFF780F804211A48FFF779F88E
:103D500008211848FFF758F9012204211548FFF7F8
:103D6000A2F824E008211348FFF76EF80821114853
:103D7000FFF767F808210F48FFF7A4F9012208218F
:103D80000C48FFF790F812E010210A48FFF75CF8A2
:103D900010210848FFF755F808210648FFF7DAF91F
:103DA000012210210348FFF77EF800E000BF00BFAA
:103DB00010BD0000002C01400002000000000000C7
:103DC00002000000020000000008000004000000E3
:103DD00004000000040000000020000008000000B3
:103DE0000800000008000000004000000C00000077
:103DF0001000000010000000183E00080000002025
:103E000098010000B4080008D03E00089801002086
:103E1000F8040000F83400081184A24A046809017B
:103E2000020304060708090C691015020406085A63
:103E30000101012323204E4B409C0823B80B4B70FB
:103E4000170823D88B3D80C1FFFF045A3E10190884
:103E500069102D70FEFFFF60690423D00737C0F999
:103E6000FFFFC4543551FFFFC8291027D8F5FFFFC5
:103E7000B06827783DFFFF90E24B100E301A2C05FA
:103E800029045AD4484B5802044BA8FD102908298C
:103E900004291429102928290429346974A940699E
:103EA00044694069446940694429342D3CABFFFFB3
:103EB000A423F00A2398082DE0FCFFFF041B88E1EF
:103EC000AC4A044823E803290C4B846708011C0012
:0400000508000131BD
:00000001FF
