:020000040800F2
:10000000B806002045010008691E00088511000897
:100010007D1A0008B90B00087F32000800000000BC
:10002000000000000000000000000000F9210008AE
:10003000110C000800000000F11E00088D250008CA
:100040005F0100085F0100085F0100085F01000810
:100050005F0100085F0100085F0100085F01000800
:100060005F0100085F0100088D0D00085F010008B6
:100070005F0100085F0100085F0100085F010008E0
:100080005F0100085F0100085F0100085F010008D0
:100090005F0100085F0100085F010008FD0D000816
:1000A0005F0100085F0100085F010008F1250008FA
:1000B0005F0100085F0100085F0100085F010008A0
:1000C0005F0100085F0100085F0100085F01000890
:1000D0005F010008913000085F0100085F0100081F
:1000E0005F0100085F0100085F0100085F01000870
:1000F000252C00085F0100085F0100085F0100086F
:100100005F0100085F0100085F0100085F0100084F
:100110005F0100085F0100085F0100085F0100083F
:100120005F0100085F0100085F0100085F0100082F
:10013000DFF80CD000F0ACFB00480047FD340008AD
:10014000B80600200648804706480047FEE7FEE75D
:10015000FEE7FEE7FEE7FEE7FEE7FEE7FEE7FEE777
:10016000912500083101000810B5002200E0521C62
:10017000835C8C5CA34201D1002BF8D1D8B2E1B2F0
:10018000401A10BD80EA010210B502F000434000A1
:1001900022D04A001FD0010E01EB1261C0F35600BD
:1001A000C2F3560240F4000042F40002A0FB022019
:1001B00000047F39140400D0401C50EA124001D4DE
:1001C0004000491EC2B20C0604EBD010401C40088F
:1001D000802A02D003E0002010BD20F00100002999
:1001E00000DA0020184310BD30B480EA010202F0AA
:1001F000004530F0004221F0004013D090B1C30D13
:10020000D40DC2F31601C0F31600E41A41F4000144
:1002100040F400027D34914201D3641C00E04900A7
:10022000002C02DA30BC002070474FF4000000239D
:10023000914201D3891A034340084FEA4101F7D1A3
:1002400051B1914202D14FF0004105E002D24FF08E
:10025000010101E06FF0010103EBC450284430BC00
:1002600000F031BA2DE9FE4F804681EA0300C00F4D
:100270000C46009021F0004123F00045B8EB02004D
:10028000A94105D24046214690461C460B460246EF
:1002900023F00040104347D0270DC7F30A00C3F3F3
:1002A0000A510290401A019040286BDAC3F3130000
:1002B00040F4801B0098924620B10023D2EB030A41
:1002C00063EB0B0B01985946C0F14002504600F019
:1002D000C9F906460D4650465946019A00F0E1F923
:1002E00010EB08006141002487EA115284EAE773A9
:1002F0001A4340D0009A62B3019A012A4FEA07528A
:1003000015DC001B61EB02014FF0004202EA0752CC
:10031000CDE90042001C41F5801132462B4600F029
:1003200018FA03B0BDE8F08F40462146F9E7001BFC
:1003300061EB0201001C41F5801300185B4120189D
:10034000A2F5001747EB030140EAD570B6196D41DD
:1003500011E06D084FEA360645EAC0754FEA0752CC
:10036000001B61EB0201001C41F5801149084FEAB6
:1003700030000019514132462B4603B0BDE8F04F22
:1003800000F0D8B90098012240000023D0EB02020F
:1003900063EBE073009821464FEAE074B8EB00008D
:1003A00061EB0401E9E783F000435BE781F0004182
:1003B00058E72DE9FE4F81EA030404F0004421F0E0
:1003C000004100944FF0000B23F0004350EA010479
:1003D0005ED052EA03045BD0C3F30A54C1F30A555A
:1003E0002C44A4F2F3340194A0FB0254C1F3130192
:1003F00041F48011C3F3130343F4801301FB02445F
:1004000000FB034E840A970A44EA815447EA835763
:10041000A4FB076802958D0A05FB07854FEA932C1C
:1004200004FB0C542705029D4FEA065847EA16378D
:10043000B5EB08056EEB070C870E920E47EA8117A5
:1004400042EA8312A7FB0201B6EB0B0164EB000446
:100450002B0D43EA0C335E1844EB1C50DA46514630
:10046000E7FB0201C5F313044FEA0B3343EA1453CD
:100470004FEA0432019C43EA0603A4F10C040294FF
:10048000009CCDE900B400F064F903B0BDE8F08F42
:1004900000200146F9E72DE9F04D81EA030404F05C
:1004A000004B21F0004514464FF0000A23F00041B4
:1004B00050EA050220D054EA01021DD0C5F30A57C4
:1004C0000246C5F31303C1F31300C1F30A5640F407
:1004D000801543F48013A7EB0608101BD64608F2DC
:1004E000FD3873EB050002D308F1010801E0921812
:1004F0005B41B8F1000F03DA00200146BDE8F08D42
:1005000000204FF48011064684460EE0171B73EB63
:10051000050705D3121B63EB050306434CEA010CE8
:1005200049084FEA300092185B4150EA0107EDD1CB
:1005300052EA030012D082EA040083EA050108436C
:1005400005D0101BAB4106D20122002306E0002299
:100550004FF0004302E06FF0010253101AEB060067
:100560004CEB085110EB0A0041EB0B01BDE8F04DDC
:1005700000F0E0B8C10F80EAE0700844CA07962393
:10058000002100F0A9B896230022114600F0A4B87B
:100590000EB5C10F80EAE0700844CA07002140F29E
:1005A00033438DE80E000A460B4600F0D2F803B044
:1005B00000BD0EB540F2334102910021CDE900119A
:1005C0000A460B4600F0C5F803B000BD20F000401D
:1005D000C10DC0F3160040F400007F2901DA0020AD
:1005E0007047962903DCC1F19601C84070479639DF
:1005F0008840704770B5C1F30A5201F000450024ED
:10060000C1F3130140F2FF3341F480119A4201DA41
:10061000002070BD40F233439A42A2F2334203DC21
:10062000524200F02EF800E090402C43F1D04042BE
:1006300070BD000030B5041E71F1000404DB4FF002
:100640000044404264EB0101141E73F1000405DB19
:100650001C464FF00043524263EB0403994208BF2B
:10066000904230BD202A04DB203A00FA02F100203B
:1006700070479140C2F1200320FA03F319439040E0
:100680007047202A04DB203A21FA02F0002170474B
:1006900021FA02F3D040C2F12002914008431946EA
:1006A0007047202A06DBCB17203A41FA02F043EAD2
:1006B000E07306E041FA02F3D040C2F1200291401B
:1006C0000843194670470029A8BF7047401C4900DD
:1006D00008BF20F00100704710B4B0FA80FC00FAA7
:1006E0000CF050EA010404BF10BC704749B1CCF1D2
:1006F000200421FA04F411FA0CF118BF012121435E
:100700000843A3EB0C01CB1D4FEA00614FEA102018
:1007100042BF002010BC704700EBC35010440029BA
:10072000A4BF10BC7047401C490008BF20F0010066
:1007300010BC704710B5141E73F1000408DA401C99
:1007400041F1000192185B411A4301D120F00100F0
:1007500010BD2DE9F04D92469B4611B1B1FA81F2E0
:1007600002E0B0FA80F220329046FFF77BFF0446A9
:100770000F4640EA0A0041EA0B0153465A46084335
:1007800013D0114653EA010019D0C8F14002504677
:10079000FFF777FF05460E46504659464246FFF79B
:1007A00061FF084305D0012004E020463946BDE83A
:1007B000F08D0020054346EAE0762C4337430A9843
:1007C0006305E40AA0EB08000022FD0A44EA47544E
:1007D0000A3002D500200146E9E7010510196941F8
:1007E000DDE9084500196941BDE8F04DA2E72DE9B2
:1007F000F04D00231A461B1A8A4103DB00200146F4
:10080000BDE8F08DC1F30A52C1F3130141F4801524
:100810004FF0000BD10702D100186D41521E002786
:10082000044640F2FF11384601EB620A3E4680461C
:10083000024600204FF48011FFF723FFC2197141D7
:10084000BB1846EB0100B4EB030C75EB000C04D3B2
:10085000E41A65EB000517460E46241908F101005D
:100860006D4180463428E3DDF91946EB0600091B8B
:10087000A84103D24FF0FF32134601E00022134695
:100880001BEB070046EB0A51BDE8F04DFFF752BFE6
:10089000064C074D06E0E06840F0010394E80700CD
:1008A00098471034AC42F6D3FFF746FC143C0008DE
:1008B000343C000870B58C1810F8015B15F0070384
:1008C00001D110F8013B2A1106D110F8012B03E0E9
:1008D00010F8016B01F8016B5B1EF9D12B0705D4F1
:1008E0000023521E0DD401F8013BFAE710F8013B3A
:1008F000CB1A921C03E013F8015B01F8015B521E56
:10090000F9D5A142D8D3002070BD00002DE9F04FE9
:100910008BB004460D4616461F46DDF850A04FF03A
:100920000008C14600200A9015B90BB0BDE8F08F51
:10093000012004EB44019A4A02F8310060B203F04E
:10094000F1F8002D08DA012004EB4401944A02EB8F
:10095000C10148706D4206E0002004EB4401904A5A
:1009600002EBC101487034B1012C09D0022C0DD02A
:10097000032C19D111E08A4840788A49086013E0B5
:100980008748407E8749083108600DE0844890F828
:10099000310084492831086006E0814890F8490018
:1009A00080493031086000BF00BF012D13D1A81E5F
:1009B00004EB44017A4A02EBC1014861022004EBD6
:1009C000440102F831004FF47A7004EB440102EB69
:1009D000C1014860C0E0002DFCD0734991FBFAF0E2
:1009E00000EBD071491004EB44026D4B03EBC202E3
:1009F00011616D48B0FBF6FB5846FFF7DAFDCDE913
:100A0000000103F011F80022684BCDE90201FFF765
:100A1000D0FC0022664BCDE90401FFF73CFD00222B
:100A20004FF08043CDE90601FFF735FDCDE9080120
:100A3000FFF7E0FD04EB4401594A02EBC1014860B5
:100A40000AFB0AF07100B0FBF1F8B8F1000F01D118
:100A50004FF00108F019A84217D9F019FFF793FDDC
:100A600083463846FFF78FFD59460990FFF7BCFBD8
:100A70000A902846FFF77EFD09900A99FFF782FB4E
:100A80008346FFF7A3FD814604E0F019B5FBF0F0C3
:100A900000FB07F9B9F1000F01D14FF00109C14581
:100AA00008D8A9EB050004EB44013D4A02EBC10163
:100AB000C8600AE008FB06F0B0FBF7F0404204EB28
:100AC0004401374A02EBC101C86004EB44003449D9
:100AD00001EBC000C06838B94FF0FF3004EB4401AF
:100AE0002F4A02EBC101C86004EB44002C4901EB22
:100AF000C000C068284404EB4401294A02EBC1014C
:100B0000886004EB4400114601EBC000406804EB30
:100B1000440102EBC1010969884210DC04EB440086
:100B2000114601EBC000006904EB440102EBC10176
:100B30004860032004EB440102F8310005E0012085
:100B400004EB4401164A02F83100002004EB440192
:100B5000134A02EBC101486124B96421154802F02F
:100B60003CFA13E0012C04D16421124802F037FA58
:100B70000CE0022C04D164210E4802F032FA05E0A8
:100B8000032C03D164210B4802F02DFA642109489B
:100B900002F021FA0121074802F083F800BFC4E601
:100BA000D40100208401224280841E0040A13441EF
:100BB00000408F40002C014000BFFEE708B5012136
:100BC000202001F0A7F910208DF803004020ADF897
:100BD000000003208DF802006946044800F0E8F99F
:100BE0004021024800F0CCFA08BD0000001401408A
:100BF00010B54021014800F0C3FA10BD00140140B7
:100C000010B54021014800F0B9FA10BD00140140B0
:100C10007047000030B589B005460C460121102010
:100C200001F078F910208DF82300ADF820000320A2
:100C30008DF8220008A9394800F0BAF91021374888
:100C400000F09CFA10208DF823002020ADF8200041
:100C500003208DF8220008A9304800F0A9F92021CE
:100C60002E4800F08BFA18208DF823004FF4807086
:100C7000ADF8200003208DF8220008A9274800F0D5
:100C800097F90121480301F045F90020ADF81A0059
:100C9000ADF81600681E80B2ADF81800601E80B274
:100CA000ADF8140000208DF81C0005A91C4802F0C6
:100CB0009DF901A802F085F96020ADF8040000203C
:100CC000ADF80C000120ADF806000020ADF80A00D8
:100CD00001A9134802F0D0F80121114801F0EDFFFD
:100CE0004FF4A06001F0FAF82C208DF800000120EC
:100CF0008DF8030000208DF801008DF80200684691
:100D000001F0B4F801221146054801F0F6FF012177
:100D1000034801F0C6FF09B030BD000000100140DB
:100D2000003401401548007840B215490870134856
:100D30000078001F40B2487010480078801E40B212
:100D4000104908700D480078401F40B248700B48A9
:100D50000078C01F40B2887008480078401E40B23A
:100D60000949087005480078C01E40B24870034821
:100D70000078801F40B28870704700002800002073
:100D800034000020310000203600002010B5102073
:100D900000F056F8012823D112480078012817D115
:100DA00011A11248FFF7E0F948B111A10F48FFF770
:100DB000DBF920B10FA10D48FFF7D6F940B9FFF7D5
:100DC00017FF00200749087001200B49087004E054
:100DD00000200949087003490870102000F02AF823
:100DE00010BD00004100002031000000540200202E
:100DF00032000000330000003D00002010B520202C
:100E000000F01EF801280DD107480078012806D10E
:100E100000200649064A12788854034908702020A9
:100E200000F008F810BD000042000020290000205A
:100E300028000020014908607047000014040140A8
:100E4000014600200022074B1B6803EA0102054B04
:100E500014331B680B4013B10AB1012000E00020DD
:100E600070470000000401401FB50121402001F03F
:100E700051F80121084601F04DF848208DF80F0087
:100E80001020ADF80C0003A9134800F091F80421DC
:100E9000084600F06DF81020019001208DF80A003E
:100EA00000208DF808000C208DF8090001A800F042
:100EB00015F84FF4A06001F011F80A208DF8000039
:100EC00001208DF8030000208DF801008DF802004C
:100ED000684600F0CBFF1FBD0018014000212349E8
:100EE0008279002A3AD00A46126803689A430B4670
:100EF0001A600A1D126803689A430B1D1A60027972
:100F000011440A6803681A430A60184A08321268D2
:100F100003689A43154B08331A601A1D1268036858
:100F20009A43124B0C331A604279102A0ED11A1FC1
:100F3000126803681A430D4B08331A601A1D1268B1
:100F400003681A43094B0C331A600DE007494279D4
:100F500011440A6803681A430A6005E002791144E3
:100F60000A6803689A430A60704700000004014061
:100F700030B500228B071C0F0F2303FA04F20B4B32
:100F80008C1053F824309343084C8D1044F82530CE
:100F900023468C1053F824308C07240F00FA04F4F5
:100FA0002343024C8D1044F8253030BD0800014029
:100FB0002DE9F041024600250026002000230024F0
:100FC000002791F803C00CF00F0591F803C00CF056
:100FD000100CBCF1000F03D091F802C04CEA0505DB
:100FE00091F800C0BCF1000F31D0146800202BE054
:100FF0004FF0010C0CFA00F3B1F800C00CEA030644
:101000009E4220D183004FF00F0C0CFA03F7BC4333
:1010100005FA03FC4CEA040491F803C0BCF1280F64
:1010200006D14FF0010C0CFA00FCC2F814C00AE023
:1010300091F803C0BCF1480F05D14FF0010C0CFA38
:1010400000FCC2F810C0401C0828D1D31460B1F8CD
:1010500000C0BCF1FF0F34DD546800202EE000F129
:10106000080C4FF0010808FA0CF3B1F800C00CEAC4
:1010700003069E4221D183004FF00F0C0CFA03F7B8
:10108000BC4305FA03FC4CEA040491F803C0BCF12C
:10109000280F05D100F1080C08FA0CF8C2F81480EA
:1010A00091F803C0BCF1480F07D100F1080C4FF0D4
:1010B000010808FA0CF8C2F81080401C0828CED3AA
:1010C0005460BDE8F0810000F0B50A46002300241A
:1010D0000021002500F00046B6F1004F02D11D4E60
:1010E000F16901E01B4E7168C0F3034583B200F45F
:1010F0004016B6F5401F08D121F07061154E766894
:1011000026F07066134F7E6012E000F48016B6F58C
:10111000801F06D1032606FA05F4A14341F0706151
:1011200006E0460D360103FA06F6B14341F0706160
:1011300022B1460D360103FA06F6314300F00046AF
:10114000B6F1004F02D1034EF16101E0014E716032
:10115000F0BD0000000001400246002093680B40F3
:101160000BB1012000E00020704702460020D36848
:101170000B400BB1012000E0002070474161704737
:101180000161704700BFFEE708B50121042000F0AF
:10119000C1FE4FF48050ADF8000048208DF80300E8
:1011A00069460248FFF704FF08BD0000000801403F
:1011B00070B505460C46A1B22846FFF7CDFF0128C1
:1011C00008D100BFA1B22846FFF7C6FF0128F9D019
:1011D000012070BD0020FCE730B589B005460C4603
:1011E0000121082000F096FE0121042000F082FE7B
:1011F00018208DF823004020ADF8200003208DF842
:10120000220008A91748FFF7D3FE0020ADF81A0006
:10121000ADF81600681E80B2ADF81800601E80B2EE
:10122000ADF8140000208DF81C0005A90E4801F04F
:10123000DDFE01A801F0C5FE6020ADF8040000202D
:10124000ADF80C000120ADF806000020ADF80A0052
:1012500001A9054801F05AFD0121034801F021FDD3
:1012600009B030BD000C01400008004030B589B025
:1012700005460C460121082000F04CFE0121042007
:1012800000F038FE18208DF823008020ADF82000F3
:1012900003208DF8220008A91748FFF789FE0020D7
:1012A000ADF81A00ADF81600681E80B2ADF818004F
:1012B000601E80B2ADF8140000208DF81C0005A956
:1012C0000E4801F093FE01A801F07BFE6020ADF80E
:1012D00004000020ADF80C000120ADF8060000204D
:1012E000ADF80A0001A9054801F066FD0121034897
:1012F00001F0D7FC09B030BD000C014000080040EF
:1013000008B5694800680090684803686848026842
:1013100068480168012001F099F8142002F046F8AD
:101320006548006800906148036861480268614848
:101330000168022001F08AF8142002F037F85F48B3
:101340000068009059480368594802685948016884
:10135000032001F07BF8142002F028F858480068B8
:1013600000905248036852480268524801680020C1
:1013700001F06CF8142002F019F8022000F04AFF86
:10138000142002F013F84F480068009047480368A3
:101390004748026847480168002001F057F81420C8
:1013A00002F004F84848006800904048036840484C
:1013B000026840480168012001F048F8434800688D
:1013C00000903A4803683A4802683A4801680220A7
:1013D00001F03CF83E4B3F4802683F4801683F48F7
:1013E000006800F0EFFF142001F0E0FF3C4B2F48B5
:1013F00002682F4801682F48006801F003F81420A4
:1014000001F0D4FF374B2948026829480168294870
:10141000006800F0F7FF142001F0C8FF324B2348AA
:101420000268234801682348006800F0EBFF14209D
:1014300001F0BCFF2D4B1D4802681D4801681D4886
:10144000006800F0DFFF142001F0B0FF002000F082
:10145000E1FE142001F0AAFF25480068009013481F
:1014600003681348026813480168002000F0EEFF8B
:101470002048006800900D4803680D4802680D4838
:101480000168022000F0E2FF1B4800680090074856
:1014900003680748026807480168032000F0D6FF88
:1014A000142001F083FF08BDD40000205400002068
:1014B0005800002050000020D8000020DC00002050
:1014C000D0000020E0000020C4000020C800002060
:1014D000A400002060000020640000205C000020C8
:1014E000F000002010010020000100202001002059
:1014F000E8000020EC0000207001002008B56948D9
:101500000068009068480368684802686848016895
:10151000012000F09BFF142001F048FF654800689F
:1015200000906148036861480268614801680220D0
:1015300000F08CFF142001F039FF5F480068009034
:10154000594803685948026859480168032000F067
:101550007DFF142001F02AFF58480068009052488F
:1015600003685248026852480168002000F06EFF8C
:10157000142001F01BFF012000F04CFE142001F0AC
:1015800015FF4F48006800904748036847480268C5
:1015900047480168002000F059FF142001F006FFC1
:1015A0004848006800904048036840480268404846
:1015B0000168012000F04AFF4348006800903A4863
:1015C00003683A4802683A480168022000F03EFF8A
:1015D0003E4B3F4802683F4801683F48006800F0C2
:1015E000F1FE142001F0E2FE3C4B2F4802682F4828
:1015F00001682F48006800F005FF142001F0D6FEB6
:10160000374B29480268294801682948006800F0DA
:10161000F9FE142001F0CAFE324B23480268234829
:1016200001682348006800F0EDFE142001F0BEFEC2
:101630002D4B1D4802681D4801681D48006800F0D8
:10164000E1FE142001F0B2FE002000F0E3FD1420C2
:1016500001F0ACFE25480068009013480368134869
:10166000026813480168002000F0F0FE204800687E
:1016700000900D4803680D4802680D48016802207B
:1016800000F0E4FE1B480068009007480368074824
:10169000026807480168032000F0D8FE142001F01A
:1016A00085FE08BD7801002054000020580000206D
:1016B00050000020840100208801002074010020D7
:1016C000E0000020940100209C010020B4000020D4
:1016D00060000020640000205C0000205001002019
:1016E000300100206001002040010020E8000020BF
:1016F000A40100207001002008B56948006800902E
:10170000684803686848026868480168012000F07A
:101710009DFE142001F04AFE654800680090614873
:1017200003686148026861480168022000F08EFE8B
:10173000142001F03BFE5F480068009059480368A0
:101740005948026859480168032000F07FFE1420C0
:1017500001F02CFE58480068009052480368524837
:10176000026852480168002000F070FE142001F069
:101770001DFE012000F04EFD142001F017FE4F4821
:101780000068009047480368474802684748016876
:10179000002000F05BFE142001F008FE48480068BD
:1017A00000904048036840480268404801680120B2
:1017B00000F04CFE4348006800903A4803683A48FD
:1017C00002683A480168022000F040FE3E4B3F4864
:1017D00002683F4801683F48006800F0F3FD1420AC
:1017E00001F0E4FD3C4B2F4802682F4801682F4868
:1017F000006800F007FE142001F0D8FD374B29489F
:101800000268294801682948006800F0FBFD14209F
:1018100001F0CCFD324B234802682348016823487D
:10182000006800F0EFFD142001F0C0FD2D4B1D48B5
:1018300002681D4801681D48006800F0E3FD14209F
:1018400001F0B4FD002000F0E5FC142001F0AEFD35
:10185000254800680090134803681348026813483D
:101860000168002000F0F2FD2048006800900D485B
:1018700003680D4802680D480168022000F0E6FD8B
:101880001B4800680090074803680748026807483B
:101890000168032000F0DAFD142001F087FD08BD87
:1018A0007C0100205400002058000020500000203F
:1018B000800100208C01002074010020E000002045
:1018C0009401002098010020B40000206000002056
:1018D000640000205C000020500100203001002046
:1018E0006001002040010020E8000020A401002049
:1018F0007001002008B500202649087026490870AC
:10190000264908702649087000F084FC142001F074
:101910004DFD24480068009023480368234802686E
:1019200023480168002000F0FDFD142001F03EFD79
:10193000204B1D4802681D4801681D48006800F0E2
:10194000A3FD142001F032FD1648C068009016482F
:1019500003681648026816480168032000F0E2FD9B
:1019600010488068009010480368104802681048CA
:101970000168022000F0D6FD0A48406800900A483D
:1019800003680A4802680A480168012000F0CAFD9D
:1019900008BD00004C0000204D0000204E0000203B
:1019A0004F000020940000206C00002070000020F8
:1019B000680000207400002008B500202649087047
:1019C00026490870264908702649087000F022FC54
:1019D000142001F0EBFC24480068009023480368C1
:1019E0002348026823480168002000F09BFD142072
:1019F00001F0DCFC204B1D4802681D4801681D48B1
:101A0000006800F041FD142001F0D0FC1648C068C9
:101A100000901648036816480268164801680320BB
:101A200000F080FD1048806800901048036810485E
:101A3000026810480168022000F074FD0A484068FE
:101A400000900A4803680A4802680A4801680120B1
:101A500000F068FD08BD00004C0000204D00002093
:101A60004E0000204F000020940000206C00002059
:101A700070000020680000208400002000BFFEE706
:101A80002DE9FF5F814600260024002003900025F9
:101A900002900190009000BF05E019F8050002A92E
:101AA0004855681CC5B2022DF7DB3948007810B9DB
:101AB00000208DF808003648007910B900208DF814
:101AC0000900012629E0002421E002AA611C5056E9
:101AD000FEF75EFD21F00048074602A90857FEF711
:101AE00057FD21F0004182463A464346FEF7A2FDEB
:101AF0000BD202A8005D039002A9601C085C085587
:101B0000039841B202AA601C1154601CC4B2C6F111
:101B10000200A042D9DC701CC6B2022ED3DB9DF9B4
:101B20000800FEF735FD21F000410746FEF762FD93
:101B300040B201909DF90900FEF72AFD21F0004115
:101B400007460022134BFEF731FC8246FEF752FD9A
:101B500040B200909DF8080080B90D48007820B987
:101B60009DF9090004B0BDE8F09F0948007910B95B
:101B70009DF90900F6E79DF90800F3E7DDE900109B
:101B8000884202DC9DF90800ECE79DF90900E9E7CD
:101B900029000020000020402DE9FF5F814600263B
:101BA000002400200390002502908246834600BF57
:101BB00005E019F8050002A94855681CC5B2032DB7
:101BC000F7DB4D48407810B900208DF808004A48EE
:101BD000C07810B900208DF809004748807910B905
:101BE00000208DF80A0001262AE0002422E002AA43
:101BF000611C5056FEF7CCFC21F00048074602A9B4
:101C00000857FEF7C5FC21F000413A464346CDE9AE
:101C10000001FEF70FFD0BD202A8005D039002A9A0
:101C2000601C085C0855039841B202AA601C11545C
:101C3000601CC4B2C6F10300A042D8DC701CC6B25E
:101C4000032ED2DB9DF8080080BB9DF8090048B93F
:101C50009DF80A0018B9002004B0BDE8F09F9DF976
:101C60000A00F9E79DF90900FEF792FC21F0004116
:101C70000746FEF7BFFC4FFA80FA9DF90A00FEF70F
:101C800087FC21F00041074600221C4BFEF78EFB2B
:101C9000CDE90001FEF7AEFC4FFA80FBDA4502DC2D
:101CA0009DF90900D8E79DF90A00D5E7FFE79DF9FE
:101CB0000800FEF76DFC21F000410746FEF79AFC94
:101CC0004FFA80FA9DF90A00FEF762FC21F000410C
:101CD00000220A4BCDE90001FEF768FB0746FEF73C
:101CE00089FC4FFA80FBDA4502DC9DF90800B3E776
:101CF0009DF90A00B0E70000290000200000204004
:101D00002DE9FF5F81460026002400200390002576
:101D100002908246834600BF05E019F8050002A93B
:101D20004855681CC5B2032DF7DB4D48807810B9C3
:101D300000208DF808004A48407910B900208DF83D
:101D400009004748C07910B900208DF80A00012623
:101D50002AE0002422E002AA611C5056FEF718FC7B
:101D600021F00048074602A90857FEF711FC21F0B0
:101D700000413A464346CDE90001FEF75BFC0BD239
:101D800002A8005D039002A9601C085C0855039836
:101D900041B202AA601C1154601CC4B2C6F1030017
:101DA000A042D8DC701CC6B2032ED2DB9DF808001E
:101DB00080BB9DF8090048B99DF80A0018B90020B9
:101DC00004B0BDE8F09F9DF90A00F9E79DF909000C
:101DD000FEF7DEFB21F000410746FEF70BFC4FFA51
:101DE00080FA9DF90A00FEF7D3FB21F00041074677
:101DF00000221C4BFEF7DAFACDE90001FEF7FAFBF0
:101E00004FFA80FBDA4502DC9DF90900D8E79DF91D
:101E10000A00D5E7FFE79DF90800FEF7B9FB21F0BE
:101E200000410746FEF7E6FB4FFA80FA9DF90A00EB
:101E3000FEF7AEFB21F0004100220A4BCDE9000184
:101E4000FEF7B4FA0746FEF7D5FB4FFA80FBDA45FA
:101E500002DC9DF90800B3E79DF90A00B0E7000035
:101E600029000020000020407047000070B50021CC
:101E700000230F22C47804B3154C246804F4E064F2
:101E8000C4F5E064210AC1F10403CA40447804FAAD
:101E900003F184781440214309010E4C0678A155C2
:101EA000047804F01F050124AC4005786D11AD00E5
:101EB00005F1E025C5F8004109E0047804F01F05AC
:101EC0000124AC40044D0678761145F8264070BDDB
:101ED0000CED00E000E400E080E100E00249014395
:101EE000024A1160704700000000FA050CED00E0A6
:101EF0007047000029B1064AD2690243044BDA61F7
:101F000004E0034AD2698243014BDA617047000062
:101F10000010024029B1064A92690243044B9A61BB
:101F200004E0034A92698243014B9A6170470000C2
:101F30000010024030B500210022002400232D4D66
:101F40006D6805F00C0121B1042905D0082923D1C1
:101F500005E0294D056022E0274D05601FE0254D75
:101F60006D6805F47012234D6D6805F48034022508
:101F700005EB92421CB9214D554305600BE01D4D08
:101F80006D6805F400351DB11C4D5543056002E038
:101F9000194D5543056002E0174D056000BF00BFB5
:101FA000144D6D6805F0F0010909154D6B5C05686D
:101FB000DD4045600F4D6D6805F4E061090A104D84
:101FC0006B5C4568DD4085600A4D6D6805F46051C5
:101FD000C90A0B4D6B5C4568DD40C560054D6D68F9
:101FE00005F44041890B074D6B5CC568B5FBF3F503
:101FF000056130BD0010024000127A0000093D006A
:10200000140000202400002008B501211020FFF753
:1020100081FF0320ADF8000010208DF8030003209D
:102020008DF8020069460D48FEF7C2FF01210B48FA
:10203000FFF7A4F801214020FFF76CFF4FF4007078
:10204000ADF8000010208DF8030003208DF8020089
:1020500069460348FEF7ACFF08BD000000100140D0
:102060000018014008B501214020FFF753FF01216E
:102070001020FFF74FFF0820ADF8000010208DF86A
:10208000030003208DF8020069461148FEF790FF17
:102090004FF40060ADF8000010208DF8030003201D
:1020A0008DF8020069460B48FEF782FF0420ADF868
:1020B000000010208DF8030003208DF8020069460F
:1020C0000348FEF775FF04210148FFF757F808BDE4
:1020D000001001400018014008B501214020FFF721
:1020E00019FF01211020FFF715FF4FF40060ADF834
:1020F000000010208DF8030003208DF802006946CF
:102100001248FEF755FF4FF40050ADF800001020C4
:102110008DF8030003208DF8020069460C48FEF795
:1021200047FF4FF48060ADF8000010208DF80300E9
:1021300003208DF8020069460448FEF739FF4FF48A
:1021400080610248FFF71AF808BD00000010014046
:102150000018014008B501214020FFF7DBFE0121F6
:102160001020FFF7D7FE4FF40050ADF8000010200C
:102170008DF8030003208DF8020069461248FEF72F
:1021800017FF4FF48040ADF8000010208DF80300D9
:1021900003208DF8020069460C48FEF709FF4FF452
:1021A0008050ADF8000010208DF8030003208DF85A
:1021B000020069460448FEF7FBFE4FF480510248D6
:1021C000FEF7DCFF08BD00000010014000180140D0
:1021D00008B54FF4A060FFF781FE1B208DF80000CA
:1021E00000208DF801008DF8020001208DF8030019
:1021F0006846FFF73BFE08BD704710B5482144F61E
:102200002060FEF7E9FF482144F62060FFF72EF832
:1022100010BD000010B5044634B1012C0DD0022CC5
:1022200014D0032C24D11AE01249002000F02EF81B
:102230001149012000F02AF81AE01049002000F0AE
:1022400025F80D49012000F021F811E0094900208E
:1022500000F01CF80A49012000F018F808E00949CC
:10226000002000F013F80849012000F00FF800BF2B
:1022700000BF10BD0000FA430080BB440000FA44D8
:102280000000E143000096430000164370B5044689
:102290000D4614B1012C12D108E02846FEF796F93C
:1022A00086B23146074800F098FE08E02846FEF75F
:1022B0008DF986B23146034800F091FE00BF00BFA1
:1022C00070BD00000008004010B500F001F810BD1E
:1022D0000CB50020019000903348006840F4803035
:1022E0003149086000BF3048006800F400300090B9
:1022F0000198401C0190009818B90198B0F5A06FA2
:10230000F1D12948006800F4003010B1012000909C
:1023100001E0002000900098012843D12348006884
:1023200040F01000214908600846006820F00300D2
:1023300008600846006840F0020008601A484068DB
:10234000194948600846406848600846406840F4BB
:10235000806048600846406820F47C104860084669
:10236000406840F4E81048600846006840F080701B
:10237000086000BF0C48006800F000700028F9D029
:102380000948406820F00300074948600846406853
:1023900040F00200486000BF0348406800F00C00B5
:1023A0000828F9D10CBD00000010024000200240B6
:1023B00010B504462146024800F013FE10BD00008F
:1023C00000340140F8B506460F4614461D460094F9
:1023D0003B4632460320E968FEF798FA00943B46F4
:1023E000324600202968FEF791FA07E00448007899
:1023F00020B9034890F8480000B9F8BDF6E700009E
:10240000D4010020F8B506460F4614461D46009438
:102410003B4632460220A968FEF778FA00943B4614
:1024200032460320E968FEF771FA0BE00648007EA9
:1024300040B9054890F8300020B9034890F84800AA
:1024400000B9F8BDF2E70000D40100202DE9F843FF
:1024500004460D4616461F46DDF82080142000F085
:10246000A5FF33462A46414620460097FEF74EFA1E
:1024700007E004EB4400034911F8300008B9BDE857
:10248000F883F6E7D4010020F8B506460F46144657
:102490001D4600943B46324601206968FEF736FA35
:1024A00000943B4632460220A968FEF72FFA0094BA
:1024B0003B4632460320E968FEF728FA00943B4683
:1024C000324600202968FEF721FA20E000F0D0FF14
:1024D0000F48007801280BD10E480078012807D159
:1024E0000D480078012803D10C48007801280DD050
:1024F0000B48007858B90A48007E40B9084890F85F
:10250000300020B9064890F8480000B9F8BDDDE772
:102510004C0000204D0000204E0000204F00002005
:10252000D40100202DE9F84304460D4616461F4607
:10253000DDF8208033462A46414620460097FEF7C4
:10254000E5F90CE0204600F071FF012805D004EB0E
:102550004400034911F8300008B9BDE8F883F1E7F9
:10256000D4010020042808D14FF0E021096941F08E
:1025700004014FF0E022116107E04FF0E02109690A
:1025800021F004014FF0E022116170477047000014
:1025900010B51348006840F0010011490860084672
:1025A0004068104908400E494860084600680E49D6
:1025B00008400B4908600846006820F48020086045
:1025C0000846406820F4FE0048604FF41F00886011
:1025D000FFF77AFE4FF000600449086010BD00006C
:1025E000001002400000FFF8FFFFF6FE08ED00E0DB
:1025F0001CB500240020009001900221FB4800F04F
:102600006BFB98B100BF04EB4400F94A02EBC00039
:10261000808881B2F54800F0E0FC0221F34800F028
:102620003DFB0221F14800F036FB49E00421EF4870
:1026300000F052FB98B1012404EB4400EC4A02EB99
:10264000C000808881B2E94800F0C9FC0421E74855
:1026500000F024FB0421E54800F01DFB30E00821D8
:10266000E24800F039FB98B1022404EB4400E04A50
:1026700002EBC000808881B2DC4800F0B2FC082187
:10268000DA4800F00BFB0821D84800F004FB17E003
:102690001021D64800F020FB90B1032404EB440045
:1026A000D34A02EBC000808881B2D04800F09BFC86
:1026B0001021CE4800F0F2FA1021CC4800F0EBFADD
:1026C00004EB4400CA4A02EBC000808881B2C748CC
:1026D00000F081FC04EB4400C54911F830000028EB
:1026E00051D034B1012C16D0022C26D0032C48D165
:1026F00035E04FF40071BF48FEF737FD28B14FF4C5
:102700000071BC48FEF73AFD04E04FF40071B9488F
:10271000FEF736FD36E04FF40061B648FEF725FDC2
:1027200028B14FF40061B348FEF728FD04E04FF4F0
:102730000061B048FEF724FD24E04FF40051AD489D
:10274000FEF713FD28B14FF40051AA48FEF716FD1D
:1027500004E04FF40051A748FEF712FD12E04FF4D9
:102760008041A448FEF701FD28B14FF48041A14803
:10277000FEF704FD04E04FF480419E48FEF700FDA3
:1027800000E000BF00BF9C48005D401C9A4908550E
:102790000846005D02287DD10020085504EB440066
:1027A000934911F8300030B1012822D0022872D0AC
:1027B00003281DD1C9E00020904941F82400904928
:1027C00041F824008F4921F8140004EB4401884AA1
:1027D00002EBC101486104EB440102EBC101486016
:1027E00004EB440102EBC101086160B201F042F95F
:1027F0007FE1854800EB0410808881B201227B488C
:1028000000F03AFA7D4850F82400401C7B4941F81A
:10281000240004EB4400764901EBC0004069401CF1
:1028200004EB4401724A02EBC101486104EB44002D
:10283000114601EBC000407838B9744850F82400C4
:10284000401C724941F8240006E0704850F824000A
:10285000401E6E4941F82400694850F8240004EBFA
:102860004401634A02EBC1014968022202FB0101F3
:1028700004EB44005E4A02EBC00040698000401C4B
:1028800091FBF0F004EB440102EBC1018988081AC6
:1028900080B201E036E1BBE02DF81400584850F852
:1028A000240004EB440102EBC1014968022202FB4F
:1028B000010104EB44004E4A02EBC0004069800075
:1028C000401C91FBF0F200FB12104D4941F824002E
:1028D0004A4850F8240004EB4401454A02EBC10188
:1028E000896888420FD304EB4400114601EBC00015
:1028F000C06804EB440102EBC1014861022004EB13
:10290000440102F831003DF8140004EB4401384A58
:1029100002EBC1010969884216DC3DF8140039490F
:1029200021F8140004EB4400114601EBC000008ABA
:1029300080B22DF814000020314941F82400032012
:1029400004EB440102F83100D3E02C4850F8240095
:10295000401C2A4941F8240004EB4400244901EBBF
:10296000C000407838B9294850F82400401C274955
:1029700041F8240006E0254850F82400401E234971
:1029800041F8240004EB4400194901EBC000008A1F
:1029900080B22DF81400194850F8240004EB4401CB
:1029A000134A02EBC101896888421DD304EB44003D
:1029B000114601EBC0008068104941F8240004EB87
:1029C0004400114601EBC000C06804EB440102EB77
:1029D000C10148610B4830F814002DF814000220A2
:1029E00004EB440102F8310083E00000002C0140B8
:1029F000D401002000180140B00100203402002062
:102A000044020020A8010020D43B0008C40100209B
:102A10003D4850F82400401C3B4941F8240004EB99
:102A200044003A4901EBC000407838B9384850F8C2
:102A30002400401C364941F8240006E0344850F890
:102A40002400401E324941F8240004EB44002F4981
:102A500001EBC0004069401C04EB44012B4A02EB2F
:102A6000C10148612B4850F8240004EB440102EBFB
:102A7000C1014968022202FB010104EB4400234A20
:102A800002EBC00040698000401C91FBF0F004EBB9
:102A9000440102EBC1018988081A80B22DF81400A4
:102AA0001C4850F8240004EB440102EBC1014968C2
:102AB000022202FB010104EB4400144A02EBC000B5
:102AC00040698000401C91FBF0F200FB121011499C
:102AD00041F8240004EB44000C4901EBC0004069BC
:102AE000002805DB002004EB4401084A02F831000D
:102AF00000BF00BF3DF8140004EB4401034A02EBA1
:102B0000C10148601CBD000034020020D401002037
:102B1000C40100204402002000B587B00121C80292
:102B2000FFF7F8F901210846FFF7F4F901213B48C6
:102B3000FEF7CAFAFFF768FAFFF794FAFFF7CCFA44
:102B4000FFF708FBFFF744FB4FF6FF70ADF81400EA
:102B50002320ADF810000020ADF81600ADF81200EB
:102B60008DF8180004A92E4800F040FA3020ADF886
:102B700000000120ADF802006420ADF8060000203E
:102B8000ADF808004FF48070ADF80C006946244899
:102B900000F0BCF80021224800F004F96946204802
:102BA00000F00AF900211E4800F058F969461C4857
:102BB00000F062F900211A4800F0AEF969461848A1
:102BC00000F0B4F90021164800F0EEF90121144894
:102BD00000F061F800220221114800F08EF8002276
:102BE00004210F4800F089F8002208210C4800F069
:102BF00084F8002210210A4800F07FF801210848DB
:102C000000F02EF80121064800F04BF84FF4004088
:102C100003494431088007B000BD0000C000160021
:102C2000002C014010B501210B4800F055F8012897
:102C300010D10A480068401C08490860084600682E
:102C4000B0F5FA3F02D90020FFF7B2FB012102489C
:102C500000F024F810BD00000034014048000020BE
:102C600021B1028842F08002028004E002884FF61F
:102C70007F731A400280704730B5002301248C40D6
:102C8000A3B2048C9C430484048C02FA01F5ADB217
:102C90002C43048430BDCA4302827047CA43028277
:102CA000704721B1028842F00102028004E00288EC
:102CB0004FF6FE731A400280704731B1B0F84420DD
:102CC00042F40042A0F8442005E0B0F84420C2F3EA
:102CD0000E02A0F84420704730B5024600200023C1
:102CE0000024158A05EA0103958905EA010413B158
:102CF0000CB1012000E0002030BD1AB183890B43E4
:102D0000838102E083898B438381704770B50024FF
:102D100000220023058C4FF6FE7635400584028C98
:102D20008388048B4FF68F752C40B51E2C400D8880
:102D30002C43751E2A400D892A434D882A43144D81
:102D4000A8420BD0134DA84208D0134DA84205D07D
:102D5000124DA84202D0124DA84213D14FF6F7757A
:102D60002A404D892A434FF6FB752A408D882A4315
:102D70004FF6FF652B404FF6FF552B408D892B43B7
:102D8000CD892B4383800483CD888586028470BDE2
:102D9000002C01400034014000400140004401404B
:102DA000004801400A460021018B4FF6F773194095
:102DB000114301837047000070B5002400220023F6
:102DC000058C4FF6EF7635400584028C8388048BA2
:102DD00048F6FF752C404FF6FF452C400D884FF606
:102DE000FF7606EA05252C434FF6DF752A400D894C
:102DF00006EA05152A434D8806EA05152A43154DAE
:102E0000A84202D0144DA8421DD14FF67F752A402A
:102E10004D894FF6FF7606EA05152A434FF6BF7532
:102E20002A408D8806EA05152A434FF6FF352B40C8
:102E30004FF2FF752B408D8906EA85052B43CD891E
:102E400006EA85052B4383800483CD8805870284A9
:102E500070BD0000002C0140003401400A460021F2
:102E6000018B4FF2FF7319404FF6FF7303EA022301
:102E7000194301837047000070B50024002200232D
:102E8000058C4FF6FF6635400584028C8388848B61
:102E90004FF68F752C404FF6FC752C400D882C4357
:102EA0004FF6FF552A400D894FF6FF7606EA0525B5
:102EB0002A434D8806EA05252A43154DA84202D02B
:102EC000144DA8421DD14FF2FF752A404D894FF68F
:102ED000FF7606EA05252A434FF6FF352A408D88FE
:102EE00006EA05252A434EF6FF752B404DF6FF7581
:102EF0002B408D8906EA05152B43CD8906EA051579
:102F00002B4383808483CD888587028470BD000035
:102F1000002C0140003401400A460021818B4FF60D
:102F2000F7731940114381837047000070B5002288
:102F300000230024058C4EF6FF7635400584038C73
:102F40008488828B48F6FF752A404FF6FF452A4059
:102F50000D884FF6FF7606EA05252A434DF6FF75E4
:102F60002B400D8906EA05352B434D8806EA0535C9
:102F70002B430B4DA84202D00A4DA84208D14BF674
:102F8000FF752C408D894FF6FF7606EA85152C4398
:102F900084808283CD88A0F84050038470BD0000F7
:102FA000002C0140003401400A460021818B4FF281
:102FB000FF7319404FF6FF7303EA0223194381831D
:102FC00070470021018041808180C1800181418161
:102FD0008181C181704781857047818670470187F3
:102FE000704781877047A0F8401070470022028820
:102FF0001D4B98420ED01D4B98420BD0B0F1804F24
:1030000008D01B4B984205D01A4B984202D01A4B5D
:10301000984204D14FF68F731A404B881A43174BCE
:10302000984207D0164B984204D04FF6FF431A40FF
:10303000CB881A4302808B8883850B8803850A4BD3
:1030400098420BD0094B984208D00E4B984205D0BD
:103050000D4B984202D00D4B984201D10B7A03865A
:103060000123838270470000002C0140003401409E
:103070000004004000080040000C00400010004028
:10308000001400400040014000440140004801405D
:1030900010B540F22551094800F031F801280CD153
:1030A000064800F0E7F80649087001200549087055
:1030B00040F22551014800F007F810BD00380140EA
:1030C00054020020BC01002010B50022002340F66D
:1030D0006A14A14200D100BF0A1201249440A3B295
:1030E000DC43048010BD21B1828942F40052828108
:1030F00004E082894DF6FF731A408281704770B5F3
:103100000246002400230025002040F66A16B14242
:1031100000D100BFC1F3421501F01F03012606FADA
:1031200003F3012D02D19689334006E0022D02D12E
:10313000168A334001E0968A33400C12012606FAC3
:1031400004F41688344013B10CB1012000E00020D3
:1031500070BDF0B50346002400260025002040F68F
:103160006A17B94200D100BF1846C1F3421401F0FA
:103170001F06012707FA06F5012C01D10C3004E0E7
:10318000022C01D1103000E014301AB107682F432F
:10319000076002E00768AF430760F0BD2DE9F04724
:1031A00086B005460E460024A24600BFA146002771
:1031B000B08900B100BF2F462C8A4CF6FF70044046
:1031C000F08804432C82AC894EF6F3100440B0889A
:1031D00031890843718908430443AC81AC8A4FF6B6
:1031E000FF400440B0890443AC8201A8FEF7A2FE70
:1031F0001F48874202D1DDF810A001E0DDF80CA0E5
:10320000A88900F4004040B10AEBCA0000EB0A10A4
:1032100031684900B0FBF1F807E00AEBCA0000EBA7
:103220000A1031688900B0FBF1F86420B8FBF0F0B7
:1032300004012009642101FB1089A88900F40040E1
:1032400040B1322000EBC900B0FBF1F000F0070004
:10325000044308E0322000EB09106421B0FBF1F0D8
:1032600000F00F0004432C8106B0BDE8F087000099
:103270000038014001468888C0F30800704700BF4D
:10328000FEE7000000B587B001218803FEF742FE8B
:1032900001210420FEF73EFE18208DF81B004FF49C
:1032A0000070ADF8180003208DF81A0006A9214817
:1032B000FDF77EFE48208DF81B004FF48060ADF8CE
:1032C000180003208DF81A0006A91A48FDF770FEB1
:1032D0004FF4165002900020ADF814000C20ADF809
:1032E00012000020ADF81000ADF80E00ADF80C0093
:1032F00002A91148FFF752FF012240F225510E4862
:10330000FFF727FF4FF4A060FEF7E8FD25208DF8BA
:10331000040001208DF8070000208DF805008DF8CD
:10332000060001A8FEF7A2FD01210348FFF7DBFE1E
:1033300007B000BD000801400038014002E008C8A5
:10334000121F08C1002AFAD170477047002001E01F
:1033500001C1121F002AFBD170470000014908601B
:1033600070470000C001002010B56FF00400FFF7A7
:10337000F9F80A4800680A49B0FBF1F009490870F9
:103380000846007800EB4001C1EBC0104FF6FF711A
:1033900001EAC0000449088010BD000000000020C0
:1033A00000127A0044000020460000200146114A25
:1033B00012884A434FF0E0235A6100229A611A466C
:1033C000126942F001021A6100BF4FF0E022106959
:1033D00000F001021AB100F48032002AF5D04FF05B
:1033E000E022126922F001024FF0E0231A6100226C
:1033F0009A6170474600002010B520210148FDF772
:10340000BDFE10BD0010014008B501214020FEF7AF
:1034100081FD0F20ADF8000048208DF803006946BB
:103420000148FDF7C5FD08BD0018014010B5044670
:103430000B4A02EB8400D0F8000181B20948FDF785
:103440008BFE50B9002004EB4401074A02F831001A
:10345000064941F82400012010BD0020FCE70000CF
:103460000000234200180140D4010020C4010020C4
:1034700010B501211A48FDF76FFE38B9002019492F
:103480000870194908600120184908700221144881
:10349000FDF762FE38B900201249087612494860EB
:1034A00001201349087004210D48FDF755FE40B96D
:1034B00000200C4981F830000B49886001200D493B
:1034C000087008210648FDF747FE40B9002005496D
:1034D00081F848000449C86001200749087010BD00
:1034E00000180140D4010020C40100204C0000203D
:1034F0004D0000204E0000204F000020FDF744FE4C
:10350000FFF7C0FEFFF730FFFDF758FBFDF7ACFCFF
:10351000FEF773FE48216420FDF77CFBFFF774FF84
:10352000FFF7FAFA00BF4FF48051FD48FDF740FE67
:103530000128F8D0FEF740FAFDF762FB5DE200BF1C
:10354000F8480078012829D1FEF7D4F9F648007828
:10355000012805D1FEF7D0F80120F449087012E0E7
:10356000F3480078012805D1FDF7CAFE0120EF4994
:10357000087008E0EF480078012804D1FDF7BEFF8D
:103580000120EA4908700020E6490870E649087001
:10359000E7490870E7490870FDF732FBE648007814
:1035A0000128CBD1FDF7BEFBE448007848BBE348D7
:1035B000407830BBE148807818BBE048C07800BB59
:1035C000DE480079E8B9DD484079D0B9DB48807938
:1035D000B8B9DA48C079A0B90020D94908700BE021
:1035E0000120D649D64A92F900208854D448007860
:1035F000401C40B2D2490870D14890F90000082818
:10360000EEDBD0A1D048FCF7AFFD00287ED1CF483B
:10361000FEF736FACE490870084690F900000028F7
:1036200033DD00F0F9F9CA4890F90000C0F1080054
:1036300040B2C3490870084690F90000C44991F9A6
:103640000010884211DAFFF7D7FEBD4991F900104A
:10365000C1F108014FF4FA3201FB02F0C11700EB8F
:103660005171C910BB4A116047E0B94991F9001086
:10367000C1F108014FF4FA3201FB02F0C11700EB6F
:103680005171C910B34A116037E0B14890F9000098
:10369000002832DAFFF7B0FEAD480078083040B2BB
:1036A000A7490870084690F90000A94991F900104F
:1036B0004942884211DA00F0AFF9A14991F90010AE
:1036C000C1F108014FF4FA3201FB02F0C11700EB1F
:1036D0005171C9109F4A11600FE09D4991F9001086
:1036E0004942C1F108014FF4FA3201FB02F0C1175F
:1036F00000EB5171C910974A11609048007810B9D9
:103700008E48007920B101208A4900E011E008705C
:10371000914800788E490978401A8F490870002036
:1037200086498D4A127888548948007800287DD1CE
:103730005DE18AA18448FCF717FD002877D188480D
:10374000FEF7DEFA87490870084690F90000002865
:1037500033DD00F061F9834890F90000C0F1080002
:1037600040B277490870084690F900007D4991F908
:103770000010884211DAFFF73FFE714991F90010FD
:10378000C1F108014FF4FA3201FB02F0C11700EB5E
:103790005171C9106F4A116047E0724991F90010E8
:1037A000C1F108014FF4FA3201FB02F0C11700EB3E
:1037B0005171C910674A116037E06A4890F90000FA
:1037C000002832DAFFF718FE66480078083040B269
:1037D0005B490870084690F90000624991F90010B1
:1037E0004942884211DA00F017F9554991F9001061
:1037F000C1F108014FF4FA3201FB02F0C11700EBEE
:103800005171C910534A11600FE0564991F90010E7
:103810004942C1F108014FF4FA3201FB02F0C1172D
:1038200000EB5171C9104B4A116001E0DBE018E078
:103830004248807828B94148407910B93F48C0795A
:1038400010B101203A490870434800784549097889
:10385000401A41490870002038493F4A127888547C
:10386000C1E041A13848FCF77FFC002857D13F4810
:10387000FEF792F93E490870084690F900000028CA
:1038800033DD00F0C9F83A4890F90000C0F10800B3
:1038900040B22B490870084690F90000344991F96C
:1038A0000010884211DAFFF7A7FD254991F90010B1
:1038B000C1F108014FF4FA3201FB02F0C11700EB2D
:1038C0005171C910234A116073E0294991F9001020
:1038D000C1F108014FF4FA3201FB02F0C11700EB0D
:1038E0005171C9101B4A116063E0214890F9000032
:1038F00000285EDAFFF780FD1D480078083040B2EE
:103900000F490870084690F90000194991F9001014
:10391000494288423DDA00F07FF809492AE061E037
:10392000000801403D0000203F0000204200002030
:10393000400000203E000020BC01002029000020A3
:103940003C00002031000000540200203400002020
:10395000390000204800002028000020330000002B
:10396000310000203A000020320000003600002024
:103970003B00002091F90010C1F108014FF4FA3228
:1039800001FB02F0C11700EB5171C9101B4A116015
:103990000FE01B4991F900104942C1F108014FF4B1
:1039A000FA3201FB02F0C11700EB5171C910134A42
:1039B00011601448407828B91248C07810B91148ED
:1039C000807910B1012010490870104800780C4926
:1039D0000978401A0D49087000200A490B4A1278EC
:1039E000885400E0ACE53220FEF7E2FC00BF012085
:1039F00007490870002007490870A0E5480000202A
:103A00003B000020290000203F000020280000206B
:103A100041000020BC01002010B520210148FDF725
:103A2000AFFB10BD001001402DE9F04106460F46E6
:103A3000FCF7DDFE041E0D4618BF0120284320F0D0
:103A40000040C0F17F6000F1E040C00F0ED0301C9C
:103A500018BF0120384320F00040C0F17F6000F122
:103A6000E040C00F04BF0120FFF778FC2046294644
:103A7000BDE8F08110B5044634B1012C16D0022CFB
:103A800026D0032C48D135E002212548FFF706F95E
:103A900002212348FFF7FFF800212148FFF782F9B0
:103AA000002202211E48FFF728F936E004211C48B5
:103AB000FFF7F4F804211A48FFF7EDF80021184841
:103AC000FFF7CCF9002204211548FFF716F924E08E
:103AD00008211348FFF7E2F808211148FFF7DBF847
:103AE00000210F48FFF718FA002208210C48FFF7C1
:103AF00004F912E010210A48FFF7D0F81021084815
:103B0000FFF7C9F800210648FFF74EFA00221021FE
:103B10000348FFF7F2F800E000BF00BF10BD00004F
:103B2000002C014010B5044634B1012C16D0022CF3
:103B300026D0032C48D135E002212548FFF7AEF806
:103B400002212348FFF7A7F808212148FFF72AF9A7
:103B5000012202211E48FFF7D0F836E004211C485C
:103B6000FFF79CF804211A48FFF795F80821184838
:103B7000FFF774F9012204211548FFF7BEF824E08D
:103B800008211348FFF78AF808211148FFF783F846
:103B900008210F48FFF7C0F9012208210C48FFF760
:103BA000ACF812E010210A48FFF778F81021084815
:103BB000FFF771F808210648FFF7F6F901221021F6
:103BC0000348FFF79AF800E000BF00BF10BD0000F7
:103BD000002C014000020000000000000200000074
:103BE00002000000000800000400000004000000C3
:103BF0000400000000200000080000000800000091
:103C000008000000004000000C0000001000000050
:103C100010000000343C000800000020C401000037
:103C2000B4080008F83C0008C4010020F4040000B7
:103C30004C3300081184A24A0468090102030406F7
:103C40000708090C691015020406085A0101011F32
:103C500023983A4B3075082370174B1027088BB800
:103C60000B0823D88B3D80C1FFFF045A3E10190872
:103C700069142D70FEFFFF6869048B783D10CBC47A
:103C800054101B406A0422062D5CF9FFFF1C111D15
:103C900051FFFF1AD2480B88FAFFFF04F7FFFFB06D
:103CA00068301B90E28C8A0E5432C88B38FF481A59
:103CB000900569781917398429146910292C293439
:103CC0000922402904A940290469402D3CABFFFF8B
:103CD000A4238C0A1AF004180EB4FBFFFF18FCFF93
:103CE000FF94DFFFFFF8041AB0BC292C2314052928
:083CF0000C4B786908011C006F
:0400000508000131BD
:00000001FF
